{
  "address": "0x744B8BD1aB1aE8ED8f798eA0cdf9da84625197Ff",
  "abi": [
    {
      "inputs": [
        {
          "internalType": "uint256[4][9]",
          "name": "_spritesheetRanges",
          "type": "uint256[4][9]"
        },
        {
          "internalType": "string",
          "name": "_attributesContentURI",
          "type": "string"
        }
      ],
      "stateMutability": "nonpayable",
      "type": "constructor"
    },
    {
      "inputs": [],
      "name": "attributesContentURI",
      "outputs": [
        {
          "internalType": "string",
          "name": "",
          "type": "string"
        }
      ],
      "stateMutability": "view",
      "type": "function"
    },
    {
      "inputs": [],
      "name": "spritesheetImageData",
      "outputs": [
        {
          "internalType": "string",
          "name": "",
          "type": "string"
        }
      ],
      "stateMutability": "view",
      "type": "function"
    },
    {
      "inputs": [],
      "name": "spritesheetRanges",
      "outputs": [
        {
          "internalType": "uint256[4][9]",
          "name": "",
          "type": "uint256[4][9]"
        }
      ],
      "stateMutability": "view",
      "type": "function"
    }
  ],
  "transactionHash": "0xf7be98828274a25262ffdb50556521cf5bf95aa71b73a7b387443687b5aa33e7",
  "args": [
    [
      [
        0,
        7,
        7,
        11
      ],
      [
        11,
        15,
        15,
        19
      ],
      [
        19,
        22,
        22,
        25
      ],
      [
        25,
        27,
        27,
        30
      ],
      [
        30,
        42,
        42,
        42
      ],
      [
        42,
        67,
        67,
        106
      ],
      [
        106,
        110,
        110,
        114
      ],
      [
        114,
        127,
        127,
        142
      ],
      [
        142,
        143,
        143,
        144
      ]
    ],
    "ipfs://Qme48gVnyWfQpByBy3RxBqvXZe4H2q8RBsPFyXrZPaNWXp"
  ],
  "numDeployments": 1,
  "solcInputHash": "2015d2c826b3de423884e1921e9950e1",
  "bytecode": "0x60806040523480156200001157600080fd5b50604051620035b8380380620035b88339818101604052810190620000379190620003b2565b8160009060096200004a9291906200006c565b50806024908051906020019062000063929190620000c4565b505050620005b5565b8260096004028101928215620000b1579160200282015b82811115620000b0578251829060046200009f92919062000155565b509160200191906004019062000083565b5b509050620000c091906200019a565b5090565b828054620000d29062000507565b90600052602060002090601f016020900481019282620000f6576000855562000142565b82601f106200011157805160ff191683800117855562000142565b8280016001018555821562000142579182015b828111156200014157825182559160200191906001019062000124565b5b509050620001519190620001c2565b5090565b826004810192821562000187579160200282015b828111156200018657825182559160200191906001019062000169565b5b509050620001969190620001c2565b5090565b5b80821115620001be5760008181620001b49190620001e1565b506004016200019b565b5090565b5b80821115620001dd576000816000905550600101620001c3565b5090565b5060008155600101600081556001016000815560010160009055565b6000620002146200020e8462000442565b6200040e565b905080828560808602820111156200022b57600080fd5b60005b858110156200025f578162000244888262000344565b8452602084019350608083019250506001810190506200022e565b5050509392505050565b6000620002806200027a846200046b565b6200040e565b905080828560208602820111156200029757600080fd5b60005b85811015620002cb5781620002b088826200039b565b8452602084019350602083019250506001810190506200029a565b5050509392505050565b6000620002ec620002e68462000494565b6200040e565b9050828152602081018484840111156200030557600080fd5b62000312848285620004d1565b509392505050565b600082601f8301126200032c57600080fd5b60096200033b848285620001fd565b91505092915050565b600082601f8301126200035657600080fd5b60046200036584828562000269565b91505092915050565b600082601f8301126200038057600080fd5b815162000392848260208601620002d5565b91505092915050565b600081519050620003ac816200059b565b92915050565b6000806104a08385031215620003c757600080fd5b6000620003d7858286016200031a565b92505061048083015167ffffffffffffffff811115620003f657600080fd5b62000404858286016200036e565b9150509250929050565b6000604051905081810181811067ffffffffffffffff821117156200043857620004376200056c565b5b8060405250919050565b600067ffffffffffffffff82111562000460576200045f6200056c565b5b602082029050919050565b600067ffffffffffffffff8211156200048957620004886200056c565b5b602082029050919050565b600067ffffffffffffffff821115620004b257620004b16200056c565b5b601f19601f8301169050602081019050919050565b6000819050919050565b60005b83811015620004f1578082015181840152602081019050620004d4565b8381111562000501576000848401525b50505050565b600060028204905060018216806200052057607f821691505b602082108114156200053757620005366200053d565b5b50919050565b7f4e487b7100000000000000000000000000000000000000000000000000000000600052602260045260246000fd5b7f4e487b7100000000000000000000000000000000000000000000000000000000600052604160045260246000fd5b620005a681620004c7565b8114620005b257600080fd5b50565b612ff380620005c56000396000f3fe608060405234801561001057600080fd5b50600436106100415760003560e01c8063221ed3ae146100465780635a161b7c1461006457806360787be314610082575b600080fd5b61004e6100a0565b60405161005b9190610362565b60405180910390f35b61006c61012e565b6040516100799190610346565b60405180910390f35b61008a6101b1565b6040516100979190610362565b60405180910390f35b602480546100ad90610437565b80601f01602080910402602001604051908101604052809291908181526020018280546100d990610437565b80156101265780601f106100fb57610100808354040283529160200191610126565b820191906000526020600020905b81548152906001019060200180831161010957829003601f168201915b505050505081565b6101366101d0565b6000600980602002604051908101604052809291906000905b828210156101a857838260040201600480602002604051908101604052809291908260048015610194576020028201915b815481526020019060010190808311610180575b50505050508152602001906001019061014f565b50505050905090565b60405180612b400160405280612b1481526020016104aa612b14913981565b6040518061012001604052806009905b6101e86101fe565b8152602001906001900390816101e05790505090565b6040518060800160405280600490602082028036833780820191505090505090565b600061022c83836102a7565b60808301905092915050565b60006102448383610337565b60208301905092915050565b61025981610398565b61026381846103d3565b925061026e82610384565b8060005b8381101561029f5781516102868782610220565b9650610291836103b9565b925050600181019050610272565b505050505050565b6102b0816103a3565b6102ba81846103de565b92506102c58261038e565b8060005b838110156102f65781516102dd8782610238565b96506102e8836103c6565b9250506001810190506102c9565b505050505050565b6000610309826103ae565b61031381856103e9565b9350610323818560208601610404565b61032c81610498565b840191505092915050565b610340816103fa565b82525050565b60006104808201905061035c6000830184610250565b92915050565b6000602082019050818103600083015261037c81846102fe565b905092915050565b6000819050919050565b6000819050919050565b600060099050919050565b600060049050919050565b600081519050919050565b6000602082019050919050565b6000602082019050919050565b600081905092915050565b600081905092915050565b600082825260208201905092915050565b6000819050919050565b60005b83811015610422578082015181840152602081019050610407565b83811115610431576000848401525b50505050565b6000600282049050600182168061044f57607f821691505b6020821081141561046357610462610469565b5b50919050565b7f4e487b7100000000000000000000000000000000000000000000000000000000600052602260045260246000fd5b6000601f19601f830116905091905056fe646174613a696d6167652f706e673b636861727365743a7574662d383b6261736536342c6956424f5277304b47676f414141414e5355684555674141416b41414141435143415941414144674f395177414141662b306c45515652346e4f336463577764785a3048384e386952776456674b4347684a6a454e476c6934395349343668786f30494a524933616b6975593168516f617146467831477249534643466557717575726c7169704b6b36594b6c4475317442564e4b533659554a64575155416f584d46456c454f6b53657845675359684953515661544658547247592b384e764e7650327a637a4f7a4d3773323333762b3547652f4e377376746e316572333766544f7a2b34674141414141414141414141414141414141414141414141414141414141536951796d49646c66442f71522f306836776341414c435764674a694b792b646f35793437756e394a6e566f363339347a55334b6956666663562f6d2b6e6476486c424f5848446c514f6236337877645655366330644752756635762f4f785735635276662b47657a5056337a352b6d6e4c68747a37484d3954392f2f4c6879346b656d544d6c6150774141674a4f544e4e5069384e4d362f585470444a5870756b2f344f6e48344f586e36584f6b4d6c656e4f396650774d375731557a70445a62707a2f547a386e4e6e654c7032684d7432356668352b326c72506b6335516d6535637679373845424656706a76587a384e505a30754c6449624b644e66367135616c655069432b674541476f7a387a43526f6e58343648547a363132417263504c30756654753056654431542b31745a5047442b344d56762b5a376531305a4777735750317472656651766f4e2f446c5a2f614a30744c62527a59694c6b497053746c4f75653373386f6577755473705879366a767538314b2f71705679775a55445875705874564c4f364f6a7755582b6a57457845577a5776416144423646714169496943686838694368702b6943686f2b4347696f4f47486948494a50397632484a4d2b664d676a2f4152716f535371684a39414c5a52456c6641547149575371424a2b417256514e7071744b6138685232732f762f6a65657138444e4c37554669426f62466464735a5375306b7a663976304838316f565a776a70657146444f6f4150617a2b2f2b4e355650393936437845522f776b516b6c454165763351666949694f6e76576e4a6f79483361392b415152455a3137345a4b614d682b325066457249694c7158764c5a6d6a4966486838654a694b696a793962566c506d77352f2f35303069496a726e483266556c506e772b714844524552303971795a4e57574f716c6f564876723937326e4e6b69556b446f6a6d5a514141524167396b44395646316a5675496f487834686d6e33464b315179794d6774563479712b2f73412b6d6a752f75687441566d5a54767a697534766f4e32366e722f4139587a53417273366c66484666782b565772615036434256557a794d7073366865762f767270397836696e3333766f616f5a5a475532395973446f4f392b38476d36394b4b7571686c6b5a615a3150332f384f50335861362f46425775574c4b6c367253717a585137665231382f744c386d6b4d764b624f766e2b2b697546352b6f436553794d7476362b54363637596c6631515279575a6c742f587766665878347543615179386f41414a704a366867676f736d78464f7a6b36616c6c7268356563785039772b6d7471575775646d38656f464f6d667943317a4e57626f364d30642f4b536432325a71792f652f686c4b586734764b334f312b725a72614d2f2b49366c6c68714b50544a6c4335353139646c7a772f50486a566139565a6134434250517141514a366c51414276557141674e346f46746437425a6f5a78766c4176536b44554f55655038465537764554544f55655038484d38425275564372332b43476936713476585a6b4e58344f63565372332b4b6e787975757665317347333064444258532b6a34594b36487766445258512b5434614f7143583246624e744d556846726944694f334177484d69306e643549527842486c514253486c70374c716e392f7349523872367237376a50682f6853466e2f676973486649516a5a66307a4f6a703868434e6c2f642f2b776a3156345368722f592f385a6b74636546646c77504e643251632b353346706465686c6f50364332454630345136694332586c415265374e57446470584c3342366130332f32424b6531705a54364647672b4541416f696f7934773063704c353544753774425a50627a6d4a744c6448547172335a734853486433364b7a654842306c33643268732f72477a32373131765846385243302b725a72716e364b3461677330484b703537766c636c37627a482f7857714843517149584131612f4f47446456525953525173396839505166344f7676485a38374375764852394c4b334f463168366f462b73414249336e716975575770566e345776636a3072496345354551634d354551554e3530546b505a7a7633586634503731574b4b454b5078354430565a462b574a5039516556783938674a4656725434686746434b414e6f696d6242577a75672b512b4f6b3678496c472f485164346b516a66726f4f6361495250313248614155537537353874514a7432334f4d72694a357478647643664a424e695a49397a31684c6b5a664f52412f377a6876747465366959673262336767666e376c386d753931332f33463966487a372f7930785865362f394f54302f382f4d365245652f314e364374395636425a6c6132792b495a5979794b6f6f6a2f72506636574d706a66635751355831357a3836644674642f386176486a4f7133436b4434644b30587375754c694f674c7433386d382b426e465a396852385a33324b6d49316a32395037346350686c365048785a62335431486666466c384d6e51342b484c2b754e466c77354546384f6e777739487236734e357252305246664470384d5052362b724263414b6e6a6f4352522b4775467261344b7576326e6f4557587141764e776774487963494c52386e434330664a39676b6d4748772f66426b2f6438366370427a3158796f4e7448352f66427038632b2b4e373330794f2f664739627962482f766a654e354e6a6678422b596f7454586b4f4f4d42354943662b724152693341436b476c77593777666975587a47344e4e674a786e66396969752f764e537643554865316c3978576279332b6c64654f6965356a336f39594479383571626b507571312f7432626136354f3946722f6d364f6a795830554239524a57314e655134374b31753046355762624168516c4872366866745476544f696944584a794637706f67395176644e454771562f6f6f6b58344159436d6836764141414141414141414141414141414141414141414141444b44594d6841514141584e3334544f31646c48397953536e4f725864656351596a4976724f6239364b6447564664736e35625458622f356d5839786d7465796c2b515141416749494c63624e43335664555a466f57447a6f3652513942737644446d595167717a7442417741416c4d574d6e7675314a2f6b3352323749646f4b767450346357504e5a58734c2b4e757376524553306347496961336867336433644e4875322f477439686f61474775487530485746414151414141316e52732f39724758712f4e52356e454f51724f744c734b4f6c685755495164727751305455323974622b424330624e6b79355459614868374f744e36363168382b50613056714c4162446741417749564a2b4345696d686a663439594b4a4951666f66556e786c7542694a7862676c687662322f38596d686f4b47312b37544c75764f494d4a6e5a6e5858582b464f4e7666332f6b35654e5634344e4d753856342b4a6b3563795964506e78594f6b2b474547547a3766584b5a614146434141415371313179664e73596e7750745579645478506a652b693964335952565a364c7846446b4848344573764244524854616f66645868614173686f6147714c7537577a7650746d3362556c7543544d62387948544f74676f6256585468783056617134384349354b504355494c454141416c42345051652b397334754f6276393336626c4e48424f5565667750455633386a446f635048744a70764f7279346b2b534141533251794b316e562f635459745149376870347270315745414141436c3062726b65546139363938796e7951424141414153714e3179664d4950774141414141414141414141414141414141414143573061586b582b76776257366e2f767148337a787a322f3944312f3350672b67473054717233436b446a3237533869366b65507570326d51616c7755683949745a4e4b3454512b32634f2b372b7544682f31363049514168494568527368516a416d422b424e7937765939527532457858386e6c5379332b58364464753972664f2f4c6a326e7076346662766c7a6f62654a3650666658636f4f76483477666a333737466236324e65322b467a2f3045486e586b6e5a4c54347172757a6a7766365761416b4363474d566746366b6266452f776f5855585a71444d2b534f6256726556564d6f6e675238484c5376333741393469314a4955387734764c343878416e4854487779414a526b5231342f5742692b2f672f616435362f736e783833746566746433395637436a6f6a766e37377231537776666937372f387671503635746935392f2f59463970617366494d6b714143483051425a6c3735494b7666356c437a31354378423667744d463836796850526d77416f5365694954576e774368354e636b74503467394544653668706f32456737693372474769465546666f626565744132674b6b6b72554c5442564d664c634b6963734a3065496b4271415133562b68317a2b51744642596c74386a6d427a326639586677466639716936775833757148304371726d4f416f7036784343476f4955575655474d5668467a784133314a542f41416d6553777234657548304548367149514a346c5149656a5656312b4e5434687a3538344e2f6276795a586c66446874706a332b50456d346e62524e3947515a4143385250776948574f586a396d355a336c57326245345676675143414a6f5144434f524a64694c4450706776744651434141414141414130493377534c44615471344c774e327773776270536336672f564f7353727a663545774441476534455856796d6c30515839744c70666533744e65736d4b344e593645486a49626339362b76724337454d6c764954414d424a6b5149514578356c5650623139346f484866466e73697a3533424854504d716b7a4f476e31465a4f6659364a5079455871762f527376386651346b55346173774742465235644d6a4552454e44673647376762776f656f66732f324354385850783135364c506c5057396a663431757a6671733877487a7a3043653972486379354c534e6a555765576f495945644843685174707834346471756c5a667766644655692b756d4c59366d76613075664b55482f4979674e4b57322f6e37623979366e4e73336669694b426c2b2b4d39313434734b2b7a396259724b2f6c2b6c396e717a5043576575614746455245665754395338527a65746b473538706e59372f65535355717a376e5665637759694976764f6274794c5a3633717139776f774d66676b4451344f456f5537675757706d346d426878763978575055635631742b64684c6a376b73792b616b35665237714d4c50425a395951432f39626a635232596367313244544e6d5a39655839612b4245352f35304e35736e38503754366d6a593239367a5434746342377575535279426e665831397676356e347a6f6c5a564669757457796246703553686943696a34324b6d735139784a2b624f59706f42422f343243336d65426852365865496169654c55446138454d303253705561513179506f4739384f6b7a6c424d7665765174727a75544c507934326a4e6e6a764738382f667674363566312f4c7a3075393256345567452f766132316e6232466a6b3272724433324d59684f4c36446349506e7a3955414d3363576e6e58672f74716275546f57664a5464426b6b743673343973633542496d74506d6c344b35467033517266313079374c575064584b5a74596c43335374346e4c365066697763625532657561474775495768477a2f33615a623035636b5032625652702f546d7735724f3868503174316c396f34595358344d61367537747039757a5a4e524f47686f614b4871677a302f35796a4c485548536d4b4970634e6c42702b524936664b7258686837766f3062646336696171624a346f69696a74703050394c6963717132586f4170434b726a58495235655752537451364f316a57372b336730514f582b7861356f4e61706e563348654f544951547077672f6e49775346756b704f46554a3557636750466a4a573463636b314e6a4f4c357252637a39726d5470664f382f452b4a357349556a6f2b68494345503174316c2b49694c4b474947583434596147686f677937457446627748534c7278312b5a395364396144477a356b2f512b51474f2b6a6e4645796e2f454a3867633970786976304664482f6d35546437774d2f6b5457485361793741494c656f446758414951555871586d436f493858444457347153507931584933684154466c47524c556e4179674257516853425277503434487943454371304f4e722f4a74737a45346558637070335a3953655155676b2f42446c4445414b6349503579454573643765337668464a65796f7043376a7a69764f59474b67756572384b556248365564655068362f4a316d486957584c6c6b6d584d7a77386e4671507467764d496478595351733167344f44566931465354307a54366152772b2b6d2f6e51557237646b30484d57755a784d66513177566b6b476e6d52353871634879564353686536544c6b755545355737566155707146702f644f48477072744d5178647754414b534b5a387450794759644b587871373469737679515964767470617444466f52616c7a7a504a736233554d76552b545178766f66656532635855655735534178466d56742f4b6d546868346a6f744550766a304e51566b4e445139546433613263766d33624e714e394b36334652365a7a7476747865396d795a577a6d7a4a6c302b504268366253304546535066786262775a4968426c644341474c726a38646749364d61314275695653626b2b4172496d52686f536a6a4975524859447367332b702b574253446246714330392f4551394e3437752b6a6f396e2b587a694f4f436649792f6f65494c6e35474852436576535454736368375637394c41424c356176336830674a51336f4f676e5674305041794968707745446a394a55654b353733306b5752663276784c435058344b49646a66344d6a36696368484b314261614e4b4648794a2f6f5565554d65546f654b3833377a45394a7431634f6e573545614a74613435756e42415552343742523763634242536f4962623272427466464b483170323563743376712b385477346e4a566c386c37644f45487971644964344947414167434c55434634484f636e705274384f487a6d377a7634424d66516667425a3679767234385063754d506f2f6678682f422b4b4342387a786355336371707a7a47456f62707932665a422f31342b757336676e4e4143424e376b50505948774171435479473448434f43486c644b6469646f38416742434143614173622b57454e67684961474141514154514f745141444149514142514e4e414335413142455941543549446f5933655178674144514141414234567651574945635533515354435056344141414367704853744f636e4c354e487941774141414e376c2f5655594f6e484979664174384141414141437069685341694b6971753474442b4145414141414141414141414141414141434167734b41646741414b495369587759506a594e523377444e57313935586834315679596d486b416e7667675858346a6246454c762b794872782f344a4d654d41644d6e356255783868467770714a74514a2f624a38505052416472373336554b5153627257496266777a755477464f534d465432634b74623978432f41397530764374417453667144316c333551726a73767874775a4c744d63666f4b6a425a344c6e6b2f4462327a4d7637796e53466c7667372b4635763155623373707a7a2b72386b72662b566a542f4f576e3956766530586643702b50766253593136335678782b4b6a2b4a42724a573254432b4e657533796e2f61627837365a4f5a747a2f3733657a5831522b2b373363752b3254593246695844555049674a4c357547787372306a474445524574584c695164757a596f5a72755933314448587430423375456e38595239507953683556546e325072786864462f4765495a626838344372635a6641427848655435675948422f6d47386e4a77652b48545a30676e5850546f577a344f6f4f79566a5439575473745150784d44447a66366938656f3437705079634b5138334c6d72616571384450766f774f306c776149426764386e57424b5378562b4c766a45416e72706437767057374e2b79374b4549466e343465577549576866657a735467342f4a7643374c45595134416153464833452b35333366633331706465766d792f77335748314e57385971395057487244793067352b7258762f57583262655a364c456139573879666c636c7576392f30734d50474b5a2b4e4e6e45484a7462553564676254754c672b7451476b726e756b674a7761664a41383357565347482b366952392f4b7367773273487373666a47776f4833795a32325a3030347643304179597938393572774d616667525734494742317a72446d37506e446c472f31547a392b3933576e396479772f526952446b476f42553455666b456f4c34776359304248474f51536a453863486c59476d37484e30795168387a66532b50566c2f5478756165645672382b766f4e32304f336f6763354a76543139624842775546766453654454354a6c454b71716934323255395178707070584e342f544d686c6a4645553162375861566d4c674d524569424e6b635a394a6d4e50316c66483543386c572f4e767877475549512b3048504b55597a666e586b3738374c3447474868783875555a35702b2f4d64582f557a552f31393676417a37364d44744863465a616c2f636946625475784830564b4b2b4f746f616659574167765779306f4c514449325963676b4142475a6879425679342f73674f4f703279765538534630414d716a7979497459415870647475307649735242516c416e4d2f572b5a7136665836765a467234345178446b4f38574d4b646c6c6a3045325a4975324857517332567255487a793152482b47465a315337354f6f776166782f456667763267357854716d586b796a52782b562f737a5179745131635935722f394c5245516b36524c4c66494c527451593574674446345566465a77694b46377146574d6267512b522b4d4c4a61726b7341496a494c51616268683869754663676b2f47535a58784179674e596a4149554b507a7a7369463068737534547279456f594141693874644e474654674147515359706c6958745838616374554d66706236494b504c4f53453641717a56625067724664344759616765426d74792f2b6b6e66486768672b4a4c3430506e6f62687875736e4174395567352b54504179474a764c663163417156337652336858793938356250376c4d58774749625346474b34686f666562576e3949544131417934496a6a66317a4741746d30376d526f43636f37414d6c4f497237717a7a4d736c4349384e414965674a4942352b446e694c582b6b69497849426d4549466e597357304e73777138374874506d72555133333535706859675863414a4f536a61524c305762504f48737630555978702b7175597657676a6934536374334a7a582f79586d4b5144354e6a6e2b5278462b75486e726952577742616a306541445368522f5a61784d3266653265576f426b725275362b577a71547461764b737653637458302b324f6a55595566312f6e4954327564635231692b4f45425231646d456f4a6b4c5544314444636d366e306a784741627032694270676e565a64736a2f4a7767437a5a5a4c332b334857676f7a7063782f43536675394b317a6b53534d74583741487a53375876423668434444583975322b4c446957466e33666969714f6a6868366a2b41516741537352315148504237762b6a34337339792f4a376736554d6c3771722b4b6a50754f744c466e52553463656b7538783238484d523144734168643567706675444e4242732b7a714b336e64376c4459514f7576346e787a65682f414145496a70474342545971745057634a5150514a516c673254396c357850492b78776346424b746f74306773367267644b4a43336375485348385a596332304154384f6f76674e7a5a74763659586a4657646d554a506c7939573441416f47524b314a306c552b5a3142796930736f7a3934524341414d436154516a4b34556149727650624b4d3142486143657974514b68414145414555684f33447144715a5a626c687045326979684a2f536e4179674f6268633557587a4872514132624535774b5674324567597a324e636678487641315279385530512b63304f5a66693079727734555542453975456b2b563762392f695968384d2b444b5769477769645a5a423057554a5150514a5155515a44346d4156546c533575614832526f6a43504551496e31444e4a41786c4355774151525635344c4e4e69343772665946416a53556572764d6f362b2f7236314f3974367065595437777a325337597474446f3067657333427361564948503063732b616a334f6b467a555957624f5067672f41414167473849506c42767967436b615230434141414141414141414141414141414141484345376b6341414b6762584e34474d66484c4d666b5861627038587853766a6b3773582b4c7a74476c4e366377564c584567504c4a2b6f756d334277424161446a514e726c6b30456c2b677a6a2f566e484c494d52446a66695445732b7246704e3458314d515134384b7768414151426734754461705a4e41684f6846325a4f576d315a4936354f694959636b4a59367736754556527842686a5552526c3373646c3234516f552b755955666a684549494141507a446762554a6953643056656a52545573353857635a32324f31502f4b416b77772f6357555a7734397175315174777945453259516644694549414d43765168785565792b614b6a3068444c3077376d5839516e79435479354355563649375373537537784d54764169672b336c5932437a38545a54425a2b71796a4b30424a6c754835763979435838634168424141442b6d4235517636386f7679337243716a4344356331424b5764784479456f4c51546d732b516c5278585939646959686c34524a6264594d364c4d5671415166437071745168424a6e734e386d574e4a4e36455941414149724235494371436a2b636377684b437a2b636177674b38516b2b75516a442b5879454c466e3463526f3359394b74356468715a72493978414850736e496a716a452f326755374243425a53356d34445779756c744f466e3253345563324c454154514e4651586a4f67754a41454c4c59627a71554a4f576a6853536f5966576367784455677975704f57616837625253526579335a414831314351634f50655056586368764a576a6b3056345470666c6378395044315476346a472f382b75674850596b75504f462b5738554336625a53564b7444773869777452726232377430374d472f65764947386c6766567350334c343969785938622f6c394f6d54584d2b5a74773639655078383376474879657148444d6c355335436634417651763361756b38797145445877704f354334784933634c6a617779513671546c3857536d717364482f56484b54324f36774a6473316543765665574b395a524e697a547a4a4f64503361465658566c705a5462645a6a6d4d47534d69744f61457347584c6c6f463672304d7a4b2b6a32763672795343737a4a6f61617933393061767767496a72313873766a5277614d694f694430597a3455524570796c3145524551334c447164626c6830757134734b396d355158572b734b31587453796a2b6b3043454451493851516576652f3279435559707253615a573274534e31686b31316461533037664c704a46316e4e65774d4748706677553654414e4449795572673765664f546230465077673276774e762f6b636f6a7263784b6c7059644178455230647a70552b4b48534658756f762f694b64522f385a54554d6b76783857486e7a7030317877705a57543259646f46354a585a742b57726c45626b4d54725664685043384d43656c4e426d372f4579702b7169396b485631565331634d63335850594879646d5439524a526e4e3569706e7036656147526b68505830394a52756d7a594b6250396965504c4c623165396676764a4a3331564858336d315a2f497a6a57716371646c4c46707a564c78527261724d5757646e4a3148696e4341726379536562367a5874533442434f724435644a3357523236795a52747039614f412b49744f4434484f3274584a7343596e306153466f4c79506b457658627030494b396c46514732662f304662675569436a7538516c6458694f3670554a795868514455524d547759337479747778504e6f4f306a656556445736324562495679485237386861644d3165304d4a737572534a3166346e34535a692f66754f4e4e2b69737338364b702b5739506c753262426c6f70684d78746a2b414f34774261694c4a6763306d6759616632433043557946503146464676646544714c68687873635653507a6b5779396c50766c692b77506b4377476f43646e6375305a327a78755452564367494d526263577a436a4d3041364f5476614e4e6c61444e764156702f6d4f4a6837593033336a4171793450484162697137654e72504261327631376f375139516e302f72706f4f672b58793241365674426b45376a764d774859446d6253435a54775564327849734e4c6d77755939554162646c47766148502f7968706e4432786875703765646a52495a2f42354d7277514a32773454635839683131313158552f694c51357549746b34326f6d6174333866324a30722f4732443741366768414456684141496739536470363331566452494f65664a643354756437686f365371532b733767347a576b5a6d6d6b2b666939732f35526c614b6268654170654e4855585745365868514d5555664b47596334334a704f6461414d5077493375476a704b7133756e45776b6e79745739302b4f486a32566f4869487274346274442b436d734665425a666b6144424d3568422b454b32676164626a694b4c70723643687669574245525075506a4e4f634d3666532f69506a4f61394b2f574837413967725a4144436a524942774542384575623248786d6e487a37374c68482b372f4b4137512b6c68703055414d6f753264714b3431712b7350304241414141414141414141414141414141414141414141414141414141414141414141414141414141414c4c422f526f41414b41755a726353362f6d6e7965636a667a78524c7059644f496a7a464952527944744241774241592b50683537783159354d464b39747035492b54345563734f334377667573496a5130427150684d766c4d4d6e35414141414173704a303462623751302f556b4c4c754e4f6d3674506f6d74586275574f6a6f366c444f4d6a6f3753716c577269444a736f334f76336378325058426c6c46626d58502f6d4a577a586c553945615755413044786d743034653535506458636c754d58534251623277467736397434492f61444b594a4d7549334c2f356e4245524739673978675a326a7a482b576c4c6d564b2f6c77336e394139524c4e426c2b32504477734c5a2b5962717a7274364e724b7433493073726336352f34325773612b4e6c4c4b334d3172466a78356a4a49384d6956482f5050506366332b7566642f315a6846352f32544a555a566e7272646332796972592b764d416c485765526e6675745a7472746f47737a4c6e2b7a557471363565554e614b304c7243496946596b586c4f6954437933705772747962727878665752315338727438556b64656d5757316a62682f716a7a6f2f647a4e4c4b6e4f76766679727176506e444c4b334d3165552f4f6a562b2f75535833365a544c373838667633326b30396d7176765771522b506e39387a2f6a6852356538714b5863524552473759644870524552302f334e2f565a566c4a64766e6666776642472b7466654851657976353834746d6e62524f566561494552454e374a3463627a4b776f463156356b4b3166583063337a682b444170312f4446746752615068635a4d576e5a38745035306657336a7655524532372f62663475757a4c6e2b6a5a644e3174582f314332364d6c63742f336541756e6f33737531442f5a47757a4c6e2b412b39523138624c3250622b70794a6457534d71784267673255456d7734456e53585741554a586231427453744772564b725a3237566f61486835577a6a51364f7070355165646575356e746c4853424a63756336392b38684f32556449456c7932784e6d7a597479746a436f384f49694434597a556957523054454a4f584f2b692b65516b5245397a2b6e4c374d55623565644f3365797a73374f716d30744b7973676b7739675758364855422f41565056466d6a4c58756b4f4a77382b795a6375554d2b6d4f545557782f627639742f44416f79747a72722f2f71567434344e47564f64632f31452b6448377335746379352f76366e7150506d443665575758414b78415663426852413643623055677664426662513342766a42776c644a497079352b5649367369722b38746e4e346c336b75353261566c4749625a2f32655857425139364a657343593279305066512b3457305a5346414165724a7549313035514b50493553494d6144696c615148435467734141436f6d6e374a784867454141414141414141414141414141414141414141414141414141414141414141414141414141414141794f622f4165416c7456685079724f574141414141456c46546b5375516d4343a26469706673582212209859125630c21f17feecc5d6bc656ac6f7d5489864575659f160e4109872d79b64736f6c63430008000033",
  "devdoc": {
    "kind": "dev",
    "methods": {},
    "version": 1
  },
  "userdoc": {
    "kind": "user",
    "methods": {},
    "version": 1
  },
  "storageLayout": {
    "storage": [
      {
        "astId": 1829,
        "contract": "contracts/SyntheticPunksAssets.sol:SyntheticPunksAssets",
        "label": "__spritesheetRanges",
        "offset": 0,
        "slot": "0",
        "type": "t_array(t_array(t_uint256)4_storage)9_storage"
      },
      {
        "astId": 1832,
        "contract": "contracts/SyntheticPunksAssets.sol:SyntheticPunksAssets",
        "label": "attributesContentURI",
        "offset": 0,
        "slot": "36",
        "type": "t_string_storage"
      }
    ],
    "types": {
      "t_array(t_array(t_uint256)4_storage)9_storage": {
        "base": "t_array(t_uint256)4_storage",
        "encoding": "inplace",
        "label": "uint256[4][9]",
        "numberOfBytes": "1152"
      },
      "t_array(t_uint256)4_storage": {
        "base": "t_uint256",
        "encoding": "inplace",
        "label": "uint256[4]",
        "numberOfBytes": "128"
      },
      "t_string_storage": {
        "encoding": "bytes",
        "label": "string",
        "numberOfBytes": "32"
      },
      "t_uint256": {
        "encoding": "inplace",
        "label": "uint256",
        "numberOfBytes": "32"
      }
    }
  }
}