{
  "address": "0x852aC0A51C27670751499360935a739E11533Fe0",
  "abi": [
    {
      "inputs": [
        {
          "internalType": "string",
          "name": "_name",
          "type": "string"
        },
        {
          "internalType": "string",
          "name": "_symbol",
          "type": "string"
        },
        {
          "internalType": "address",
          "name": "_assetsAddress",
          "type": "address"
        },
        {
          "internalType": "address",
          "name": "_withdrawAddress",
          "type": "address"
        },
        {
          "internalType": "address",
          "name": "_ensReverseAddress",
          "type": "address"
        }
      ],
      "stateMutability": "nonpayable",
      "type": "constructor"
    },
    {
      "anonymous": false,
      "inputs": [
        {
          "indexed": true,
          "internalType": "address",
          "name": "owner",
          "type": "address"
        },
        {
          "indexed": true,
          "internalType": "address",
          "name": "spender",
          "type": "address"
        },
        {
          "indexed": true,
          "internalType": "uint256",
          "name": "id",
          "type": "uint256"
        }
      ],
      "name": "Approval",
      "type": "event"
    },
    {
      "anonymous": false,
      "inputs": [
        {
          "indexed": true,
          "internalType": "address",
          "name": "owner",
          "type": "address"
        },
        {
          "indexed": true,
          "internalType": "address",
          "name": "operator",
          "type": "address"
        },
        {
          "indexed": false,
          "internalType": "bool",
          "name": "approved",
          "type": "bool"
        }
      ],
      "name": "ApprovalForAll",
      "type": "event"
    },
    {
      "anonymous": false,
      "inputs": [
        {
          "indexed": true,
          "internalType": "address",
          "name": "from",
          "type": "address"
        },
        {
          "indexed": true,
          "internalType": "address",
          "name": "to",
          "type": "address"
        },
        {
          "indexed": true,
          "internalType": "uint256",
          "name": "id",
          "type": "uint256"
        }
      ],
      "name": "Transfer",
      "type": "event"
    },
    {
      "inputs": [
        {
          "internalType": "address",
          "name": "_address",
          "type": "address"
        }
      ],
      "name": "_getAttributes",
      "outputs": [
        {
          "internalType": "uint256[]",
          "name": "",
          "type": "uint256[]"
        }
      ],
      "stateMutability": "view",
      "type": "function"
    },
    {
      "inputs": [
        {
          "internalType": "address",
          "name": "_address",
          "type": "address"
        }
      ],
      "name": "_tokenURI",
      "outputs": [
        {
          "internalType": "string",
          "name": "",
          "type": "string"
        }
      ],
      "stateMutability": "view",
      "type": "function"
    },
    {
      "inputs": [
        {
          "internalType": "address",
          "name": "spender",
          "type": "address"
        },
        {
          "internalType": "uint256",
          "name": "id",
          "type": "uint256"
        }
      ],
      "name": "approve",
      "outputs": [],
      "stateMutability": "nonpayable",
      "type": "function"
    },
    {
      "inputs": [],
      "name": "assets",
      "outputs": [
        {
          "internalType": "contract ISyntheticPunksAssets",
          "name": "",
          "type": "address"
        }
      ],
      "stateMutability": "view",
      "type": "function"
    },
    {
      "inputs": [
        {
          "internalType": "address",
          "name": "",
          "type": "address"
        }
      ],
      "name": "balanceOf",
      "outputs": [
        {
          "internalType": "uint256",
          "name": "",
          "type": "uint256"
        }
      ],
      "stateMutability": "view",
      "type": "function"
    },
    {
      "inputs": [],
      "name": "claim",
      "outputs": [],
      "stateMutability": "payable",
      "type": "function"
    },
    {
      "inputs": [],
      "name": "claimMessage",
      "outputs": [
        {
          "internalType": "string",
          "name": "",
          "type": "string"
        }
      ],
      "stateMutability": "view",
      "type": "function"
    },
    {
      "inputs": [
        {
          "internalType": "address",
          "name": "_signer",
          "type": "address"
        },
        {
          "internalType": "bytes",
          "name": "_signature",
          "type": "bytes"
        }
      ],
      "name": "claimOther",
      "outputs": [],
      "stateMutability": "payable",
      "type": "function"
    },
    {
      "inputs": [],
      "name": "claimPrice",
      "outputs": [
        {
          "internalType": "uint256",
          "name": "",
          "type": "uint256"
        }
      ],
      "stateMutability": "view",
      "type": "function"
    },
    {
      "inputs": [
        {
          "internalType": "address",
          "name": "",
          "type": "address"
        }
      ],
      "name": "claimed",
      "outputs": [
        {
          "internalType": "bool",
          "name": "",
          "type": "bool"
        }
      ],
      "stateMutability": "view",
      "type": "function"
    },
    {
      "inputs": [
        {
          "internalType": "uint256[]",
          "name": "layers",
          "type": "uint256[]"
        }
      ],
      "name": "generatePunkSVG",
      "outputs": [
        {
          "internalType": "string",
          "name": "",
          "type": "string"
        }
      ],
      "stateMutability": "view",
      "type": "function"
    },
    {
      "inputs": [
        {
          "internalType": "uint256",
          "name": "id",
          "type": "uint256"
        }
      ],
      "name": "getAddress",
      "outputs": [
        {
          "internalType": "address",
          "name": "",
          "type": "address"
        }
      ],
      "stateMutability": "pure",
      "type": "function"
    },
    {
      "inputs": [
        {
          "internalType": "uint256",
          "name": "",
          "type": "uint256"
        }
      ],
      "name": "getApproved",
      "outputs": [
        {
          "internalType": "address",
          "name": "",
          "type": "address"
        }
      ],
      "stateMutability": "view",
      "type": "function"
    },
    {
      "inputs": [
        {
          "internalType": "uint256",
          "name": "id",
          "type": "uint256"
        },
        {
          "internalType": "uint256",
          "name": "_attributeId",
          "type": "uint256"
        }
      ],
      "name": "getAttribute",
      "outputs": [
        {
          "internalType": "uint256",
          "name": "",
          "type": "uint256"
        }
      ],
      "stateMutability": "view",
      "type": "function"
    },
    {
      "inputs": [
        {
          "internalType": "uint256",
          "name": "id",
          "type": "uint256"
        }
      ],
      "name": "getAttributeCategories",
      "outputs": [
        {
          "internalType": "uint256[]",
          "name": "",
          "type": "uint256[]"
        }
      ],
      "stateMutability": "view",
      "type": "function"
    },
    {
      "inputs": [
        {
          "internalType": "uint256",
          "name": "id",
          "type": "uint256"
        }
      ],
      "name": "getAttributes",
      "outputs": [
        {
          "internalType": "uint256[]",
          "name": "",
          "type": "uint256[]"
        }
      ],
      "stateMutability": "view",
      "type": "function"
    },
    {
      "inputs": [
        {
          "internalType": "bytes32",
          "name": "_messageHash",
          "type": "bytes32"
        }
      ],
      "name": "getEthSignedMessageHash",
      "outputs": [
        {
          "internalType": "bytes32",
          "name": "",
          "type": "bytes32"
        }
      ],
      "stateMutability": "pure",
      "type": "function"
    },
    {
      "inputs": [
        {
          "internalType": "uint256",
          "name": "id",
          "type": "uint256"
        }
      ],
      "name": "getGender",
      "outputs": [
        {
          "internalType": "enum SyntheticPunks.Gender",
          "name": "",
          "type": "uint8"
        }
      ],
      "stateMutability": "view",
      "type": "function"
    },
    {
      "inputs": [
        {
          "internalType": "string",
          "name": "_message",
          "type": "string"
        }
      ],
      "name": "getMessageHash",
      "outputs": [
        {
          "internalType": "bytes32",
          "name": "",
          "type": "bytes32"
        }
      ],
      "stateMutability": "pure",
      "type": "function"
    },
    {
      "inputs": [
        {
          "internalType": "address",
          "name": "_address",
          "type": "address"
        }
      ],
      "name": "getTokenID",
      "outputs": [
        {
          "internalType": "uint256",
          "name": "",
          "type": "uint256"
        }
      ],
      "stateMutability": "pure",
      "type": "function"
    },
    {
      "inputs": [
        {
          "internalType": "address",
          "name": "",
          "type": "address"
        },
        {
          "internalType": "address",
          "name": "",
          "type": "address"
        }
      ],
      "name": "isApprovedForAll",
      "outputs": [
        {
          "internalType": "bool",
          "name": "",
          "type": "bool"
        }
      ],
      "stateMutability": "view",
      "type": "function"
    },
    {
      "inputs": [],
      "name": "name",
      "outputs": [
        {
          "internalType": "string",
          "name": "",
          "type": "string"
        }
      ],
      "stateMutability": "view",
      "type": "function"
    },
    {
      "inputs": [
        {
          "internalType": "uint256",
          "name": "",
          "type": "uint256"
        }
      ],
      "name": "ownerOf",
      "outputs": [
        {
          "internalType": "address",
          "name": "",
          "type": "address"
        }
      ],
      "stateMutability": "view",
      "type": "function"
    },
    {
      "inputs": [
        {
          "internalType": "uint256",
          "name": "seed",
          "type": "uint256"
        },
        {
          "internalType": "uint256",
          "name": "offset",
          "type": "uint256"
        }
      ],
      "name": "randomUint",
      "outputs": [
        {
          "internalType": "uint256",
          "name": "",
          "type": "uint256"
        }
      ],
      "stateMutability": "view",
      "type": "function"
    },
    {
      "inputs": [
        {
          "internalType": "bytes32",
          "name": "_ethSignedMessageHash",
          "type": "bytes32"
        },
        {
          "internalType": "bytes",
          "name": "_signature",
          "type": "bytes"
        }
      ],
      "name": "recoverSigner",
      "outputs": [
        {
          "internalType": "address",
          "name": "",
          "type": "address"
        }
      ],
      "stateMutability": "pure",
      "type": "function"
    },
    {
      "inputs": [
        {
          "internalType": "address",
          "name": "from",
          "type": "address"
        },
        {
          "internalType": "address",
          "name": "to",
          "type": "address"
        },
        {
          "internalType": "uint256",
          "name": "id",
          "type": "uint256"
        }
      ],
      "name": "safeTransferFrom",
      "outputs": [],
      "stateMutability": "nonpayable",
      "type": "function"
    },
    {
      "inputs": [
        {
          "internalType": "address",
          "name": "from",
          "type": "address"
        },
        {
          "internalType": "address",
          "name": "to",
          "type": "address"
        },
        {
          "internalType": "uint256",
          "name": "id",
          "type": "uint256"
        },
        {
          "internalType": "bytes",
          "name": "data",
          "type": "bytes"
        }
      ],
      "name": "safeTransferFrom",
      "outputs": [],
      "stateMutability": "nonpayable",
      "type": "function"
    },
    {
      "inputs": [
        {
          "internalType": "address",
          "name": "operator",
          "type": "address"
        },
        {
          "internalType": "bool",
          "name": "approved",
          "type": "bool"
        }
      ],
      "name": "setApprovalForAll",
      "outputs": [],
      "stateMutability": "nonpayable",
      "type": "function"
    },
    {
      "inputs": [
        {
          "internalType": "bytes",
          "name": "sig",
          "type": "bytes"
        }
      ],
      "name": "splitSignature",
      "outputs": [
        {
          "internalType": "bytes32",
          "name": "r",
          "type": "bytes32"
        },
        {
          "internalType": "bytes32",
          "name": "s",
          "type": "bytes32"
        },
        {
          "internalType": "uint8",
          "name": "v",
          "type": "uint8"
        }
      ],
      "stateMutability": "pure",
      "type": "function"
    },
    {
      "inputs": [
        {
          "internalType": "bytes4",
          "name": "interfaceId",
          "type": "bytes4"
        }
      ],
      "name": "supportsInterface",
      "outputs": [
        {
          "internalType": "bool",
          "name": "",
          "type": "bool"
        }
      ],
      "stateMutability": "pure",
      "type": "function"
    },
    {
      "inputs": [],
      "name": "symbol",
      "outputs": [
        {
          "internalType": "string",
          "name": "",
          "type": "string"
        }
      ],
      "stateMutability": "view",
      "type": "function"
    },
    {
      "inputs": [
        {
          "internalType": "uint256",
          "name": "id",
          "type": "uint256"
        }
      ],
      "name": "tokenURI",
      "outputs": [
        {
          "internalType": "string",
          "name": "",
          "type": "string"
        }
      ],
      "stateMutability": "view",
      "type": "function"
    },
    {
      "inputs": [
        {
          "internalType": "address",
          "name": "from",
          "type": "address"
        },
        {
          "internalType": "address",
          "name": "to",
          "type": "address"
        },
        {
          "internalType": "uint256",
          "name": "id",
          "type": "uint256"
        }
      ],
      "name": "transferFrom",
      "outputs": [],
      "stateMutability": "nonpayable",
      "type": "function"
    },
    {
      "inputs": [
        {
          "internalType": "address",
          "name": "_signer",
          "type": "address"
        },
        {
          "internalType": "string",
          "name": "_message",
          "type": "string"
        },
        {
          "internalType": "bytes",
          "name": "signature",
          "type": "bytes"
        }
      ],
      "name": "verify",
      "outputs": [
        {
          "internalType": "bool",
          "name": "",
          "type": "bool"
        }
      ],
      "stateMutability": "pure",
      "type": "function"
    },
    {
      "inputs": [],
      "name": "withdraw",
      "outputs": [],
      "stateMutability": "nonpayable",
      "type": "function"
    },
    {
      "inputs": [],
      "name": "withdrawAddress",
      "outputs": [
        {
          "internalType": "address",
          "name": "",
          "type": "address"
        }
      ],
      "stateMutability": "view",
      "type": "function"
    }
  ],
  "transactionHash": "0x344f8e6b34b0d5fded78b0e8ace6d3e7307178ac1cee67be9a9472160ec9453e",
  "args": [
    "Secret Project",
    "sPROJ",
    "0x744B8BD1aB1aE8ED8f798eA0cdf9da84625197Ff",
    "0x3ce6543978f37315e047236139817c1f446300e5",
    "0x196eC7109e127A353B709a20da25052617295F6f"
  ],
  "numDeployments": 6,
  "solcInputHash": "dbe21194855208e4f86ed6af180436cc",
  "bytecode": "0x60e060405266470de4df8200006080908152503480156200001f57600080fd5b506040516200626d3803806200626d83398181016040528101906200004591906200026e565b848481600090805190602001906200005f92919062000135565b5080600190805190602001906200007892919062000135565b50505082600660006101000a81548173ffffffffffffffffffffffffffffffffffffffff021916908373ffffffffffffffffffffffffffffffffffffffff1602179055508173ffffffffffffffffffffffffffffffffffffffff1660a08173ffffffffffffffffffffffffffffffffffffffff1660601b815250508073ffffffffffffffffffffffffffffffffffffffff1660c08173ffffffffffffffffffffffffffffffffffffffff1660601b815250505050505050620004a1565b8280546200014390620003f3565b90600052602060002090601f016020900481019282620001675760008555620001b3565b82601f106200018257805160ff1916838001178555620001b3565b82800160010185558215620001b3579182015b82811115620001b257825182559160200191906001019062000195565b5b509050620001c29190620001c6565b5090565b5b80821115620001e1576000816000905550600101620001c7565b5090565b6000620001fc620001f68462000356565b62000322565b9050828152602081018484840111156200021557600080fd5b62000222848285620003bd565b509392505050565b6000815190506200023b8162000487565b92915050565b600082601f8301126200025357600080fd5b815162000265848260208601620001e5565b91505092915050565b600080600080600060a086880312156200028757600080fd5b600086015167ffffffffffffffff811115620002a257600080fd5b620002b08882890162000241565b955050602086015167ffffffffffffffff811115620002ce57600080fd5b620002dc8882890162000241565b9450506040620002ef888289016200022a565b935050606062000302888289016200022a565b925050608062000315888289016200022a565b9150509295509295909350565b6000604051905081810181811067ffffffffffffffff821117156200034c576200034b62000458565b5b8060405250919050565b600067ffffffffffffffff82111562000374576200037362000458565b5b601f19601f8301169050602081019050919050565b600062000396826200039d565b9050919050565b600073ffffffffffffffffffffffffffffffffffffffff82169050919050565b60005b83811015620003dd578082015181840152602081019050620003c0565b83811115620003ed576000848401525b50505050565b600060028204905060018216806200040c57607f821691505b6020821081141562000423576200042262000429565b5b50919050565b7f4e487b7100000000000000000000000000000000000000000000000000000000600052602260045260246000fd5b7f4e487b7100000000000000000000000000000000000000000000000000000000600052604160045260246000fd5b620004928162000389565b81146200049e57600080fd5b50565b60805160a05160601c60c05160601c615d6c620005016000396000818161312c0152613188015260008181610c9e015261117d015260008181610cc201528181611485015281816115540152818161271d015261286b0152615d6c6000f3fe60806040526004361061020f5760003560e01c806378619bdf11610118578063b88d4fde116100a0578063d61b051b1161006f578063d61b051b1461082f578063e06d2eb51461086c578063e985e9c5146108a9578063fa540801146108e6578063fe0bc600146109235761020f565b8063b88d4fde1461074f578063b93f9b0a14610778578063c87b56dd146107b5578063c884ef83146107f25761020f565b80639d4776b2116100e75780639d4776b214610651578063a22cb4651461066d578063a7bb580314610696578063af4fb353146106d5578063b446f3b2146107125761020f565b806378619bdf1461056f57806385d940ec146105ac57806395d89b41146105e957806397aba7f9146106145761020f565b80633ccfd60b1161019b5780636352211e1161016a5780636352211e1461045057806363f8071c1461048d57806370a08231146104ca57806371a97305146105075780637685945e146105325761020f565b80633ccfd60b146103c957806342842e0e146103e05780634378a6e3146104095780634e71d92d146104465761020f565b80631581b600116101e25780631581b600146102e257806315d655c91461030d57806323b872dd146103385780632dd34f0f146103615780633b85df721461039e5761020f565b806301ffc9a71461021457806306fdde0314610251578063081812fc1461027c578063095ea7b3146102b9575b600080fd5b34801561022057600080fd5b5061023b60048036038101906102369190614671565b610960565b6040516102489190615258565b60405180910390f35b34801561025d57600080fd5b506102666109f2565b6040516102739190615340565b60405180910390f35b34801561028857600080fd5b506102a3600480360381019061029e9190614786565b610a80565b6040516102b09190615163565b60405180910390f35b3480156102c557600080fd5b506102e060048036038101906102db919061450c565b610ab3565b005b3480156102ee57600080fd5b506102f7610c9c565b6040516103049190615163565b60405180910390f35b34801561031957600080fd5b50610322610cc0565b60405161032f9190615482565b60405180910390f35b34801561034457600080fd5b5061035f600480360381019061035a9190614333565b610ce4565b005b34801561036d57600080fd5b506103886004803603810190610383919061448d565b6110e4565b6040516103959190615258565b60405180910390f35b3480156103aa57600080fd5b506103b3611142565b6040516103c09190615340565b60405180910390f35b3480156103d557600080fd5b506103de61117b565b005b3480156103ec57600080fd5b5061040760048036038101906104029190614333565b6111e4565b005b34801561041557600080fd5b50610430600480360381019061042b9190614786565b611347565b60405161043d9190615236565b60405180910390f35b61044e611483565b005b34801561045c57600080fd5b5061047760048036038101906104729190614786565b6115d4565b6040516104849190615163565b60405180910390f35b34801561049957600080fd5b506104b460048036038101906104af91906142ce565b611607565b6040516104c19190615482565b60405180910390f35b3480156104d657600080fd5b506104f160048036038101906104ec91906142ce565b611627565b6040516104fe9190615482565b60405180910390f35b34801561051357600080fd5b5061051c61163f565b604051610529919061530a565b60405180910390f35b34801561053e57600080fd5b50610559600480360381019061055491906147af565b611665565b6040516105669190615482565b60405180910390f35b34801561057b57600080fd5b50610596600480360381019061059191906145b3565b6119c3565b6040516105a39190615340565b60405180910390f35b3480156105b857600080fd5b506105d360048036038101906105ce9190614786565b611f8e565b6040516105e09190615236565b60405180910390f35b3480156105f557600080fd5b506105fe61261e565b60405161060b9190615340565b60405180910390f35b34801561062057600080fd5b5061063b6004803603810190610636919061461d565b6126ac565b6040516106489190615163565b60405180910390f35b61066b60048036038101906106669190614439565b61271b565b005b34801561067957600080fd5b50610694600480360381019061068f91906143fd565b6128ed565b005b3480156106a257600080fd5b506106bd60048036038101906106b891906146c3565b6129ea565b6040516106cc9392919061528e565b60405180910390f35b3480156106e157600080fd5b506106fc60048036038101906106f791906142ce565b612a52565b6040516107099190615340565b60405180910390f35b34801561071e57600080fd5b5061073960048036038101906107349190614704565b612a6c565b6040516107469190615273565b60405180910390f35b34801561075b57600080fd5b5061077660048036038101906107719190614382565b612a9c565b005b34801561078457600080fd5b5061079f600480360381019061079a9190614786565b612c02565b6040516107ac9190615163565b60405180910390f35b3480156107c157600080fd5b506107dc60048036038101906107d79190614786565b612c0c565b6040516107e99190615340565b60405180910390f35b3480156107fe57600080fd5b50610819600480360381019061081491906142ce565b612cc3565b6040516108269190615258565b60405180910390f35b34801561083b57600080fd5b50610856600480360381019061085191906147af565b612ce3565b6040516108639190615482565b60405180910390f35b34801561087857600080fd5b50610893600480360381019061088e9190614786565b612d92565b6040516108a09190615325565b60405180910390f35b3480156108b557600080fd5b506108d060048036038101906108cb91906142f7565b612dc2565b6040516108dd9190615258565b60405180910390f35b3480156108f257600080fd5b5061090d600480360381019061090891906145f4565b612df1565b60405161091a9190615273565b60405180910390f35b34801561092f57600080fd5b5061094a600480360381019061094591906142ce565b612e21565b6040516109579190615236565b60405180910390f35b60006301ffc9a760e01b827bffffffffffffffffffffffffffffffffffffffffffffffffffffffff191614806109bb57506380ac58cd60e01b827bffffffffffffffffffffffffffffffffffffffffffffffffffffffff1916145b806109eb5750635b5e139f60e01b827bffffffffffffffffffffffffffffffffffffffffffffffffffffffff1916145b9050919050565b600080546109ff906158b2565b80601f0160208091040260200160405190810160405280929190818152602001828054610a2b906158b2565b8015610a785780601f10610a4d57610100808354040283529160200191610a78565b820191906000526020600020905b815481529060010190602001808311610a5b57829003601f168201915b505050505081565b60046020528060005260406000206000915054906101000a900473ffffffffffffffffffffffffffffffffffffffff1681565b60006003600083815260200190815260200160002060009054906101000a900473ffffffffffffffffffffffffffffffffffffffff1690508073ffffffffffffffffffffffffffffffffffffffff163373ffffffffffffffffffffffffffffffffffffffff161480610bab5750600560008273ffffffffffffffffffffffffffffffffffffffff1673ffffffffffffffffffffffffffffffffffffffff16815260200190815260200160002060003373ffffffffffffffffffffffffffffffffffffffff1673ffffffffffffffffffffffffffffffffffffffff16815260200190815260200160002060009054906101000a900460ff165b610bea576040517f08c379a0000000000000000000000000000000000000000000000000000000008152600401610be190615442565b60405180910390fd5b826004600084815260200190815260200160002060006101000a81548173ffffffffffffffffffffffffffffffffffffffff021916908373ffffffffffffffffffffffffffffffffffffffff160217905550818373ffffffffffffffffffffffffffffffffffffffff168273ffffffffffffffffffffffffffffffffffffffff167f8c5be1e5ebec7d5bd14f71427d1e84f3dd0314c0f7b2291e5b200ac8c7c3b92560405160405180910390a4505050565b7f000000000000000000000000000000000000000000000000000000000000000081565b7f000000000000000000000000000000000000000000000000000000000000000081565b6003600082815260200190815260200160002060009054906101000a900473ffffffffffffffffffffffffffffffffffffffff1673ffffffffffffffffffffffffffffffffffffffff168373ffffffffffffffffffffffffffffffffffffffff1614610d85576040517f08c379a0000000000000000000000000000000000000000000000000000000008152600401610d7c90615462565b60405180910390fd5b600073ffffffffffffffffffffffffffffffffffffffff168273ffffffffffffffffffffffffffffffffffffffff161415610df5576040517f08c379a0000000000000000000000000000000000000000000000000000000008152600401610dec90615382565b60405180910390fd5b8273ffffffffffffffffffffffffffffffffffffffff163373ffffffffffffffffffffffffffffffffffffffff161480610e8d57506004600082815260200190815260200160002060009054906101000a900473ffffffffffffffffffffffffffffffffffffffff1673ffffffffffffffffffffffffffffffffffffffff163373ffffffffffffffffffffffffffffffffffffffff16145b80610f1e5750600560008473ffffffffffffffffffffffffffffffffffffffff1673ffffffffffffffffffffffffffffffffffffffff16815260200190815260200160002060003373ffffffffffffffffffffffffffffffffffffffff1673ffffffffffffffffffffffffffffffffffffffff16815260200190815260200160002060009054906101000a900460ff165b610f5d576040517f08c379a0000000000000000000000000000000000000000000000000000000008152600401610f5490615442565b60405180910390fd5b600260008473ffffffffffffffffffffffffffffffffffffffff1673ffffffffffffffffffffffffffffffffffffffff1681526020019081526020016000206000815480929190600190039190505550600260008373ffffffffffffffffffffffffffffffffffffffff1673ffffffffffffffffffffffffffffffffffffffff16815260200190815260200160002060008154809291906001019190505550816003600083815260200190815260200160002060006101000a81548173ffffffffffffffffffffffffffffffffffffffff021916908373ffffffffffffffffffffffffffffffffffffffff1602179055506004600082815260200190815260200160002060006101000a81549073ffffffffffffffffffffffffffffffffffffffff0219169055808273ffffffffffffffffffffffffffffffffffffffff168473ffffffffffffffffffffffffffffffffffffffff167fddf252ad1be2c89b69c2b068fc378daa952ba7f163c4a11628f55a4df523b3ef60405160405180910390a4505050565b6000806110f084612a6c565b905060006110fd82612df1565b90508573ffffffffffffffffffffffffffffffffffffffff1661112082866126ac565b73ffffffffffffffffffffffffffffffffffffffff1614925050509392505050565b6040518060400160405280601f81526020017f4d65737361676520746f20636c61696d2053796e7468657469632050756e6b0081525081565b7f000000000000000000000000000000000000000000000000000000000000000073ffffffffffffffffffffffffffffffffffffffff166108fc479081150290604051600060405180830381858888f193505050501580156111e1573d6000803e3d6000fd5b50565b6111ef838383610ce4565b60008273ffffffffffffffffffffffffffffffffffffffff16803b806020016040519081016040528181526000908060200190933c511480611303575063150b7a0260e01b7bffffffffffffffffffffffffffffffffffffffffffffffffffffffff19168273ffffffffffffffffffffffffffffffffffffffff1663150b7a023386856040518463ffffffff1660e01b8152600401611290939291906151ca565b602060405180830381600087803b1580156112aa57600080fd5b505af11580156112be573d6000803e3d6000fd5b505050506040513d601f19601f820116820180604052508101906112e2919061469a565b7bffffffffffffffffffffffffffffffffffffffffffffffffffffffff1916145b611342576040517f08c379a0000000000000000000000000000000000000000000000000000000008152600401611339906153c2565b60405180910390fd5b505050565b6060600061135483611f8e565b90506000815167ffffffffffffffff811115611399577f4e487b7100000000000000000000000000000000000000000000000000000000600052604160045260246000fd5b6040519080825280602002602001820160405280156113c75781602001602082028036833780820191505090505b50905060005b82518110156114785761142085848381518110611413577f4e487b7100000000000000000000000000000000000000000000000000000000600052603260045260246000fd5b6020026020010151611665565b828281518110611459577f4e487b7100000000000000000000000000000000000000000000000000000000600052603260045260246000fd5b6020026020010181815250508080611470906158e4565b9150506113cd565b508092505050919050565b7f00000000000000000000000000000000000000000000000000000000000000003410156114e6576040517f08c379a00000000000000000000000000000000000000000000000000000000081526004016114dd906153a2565b60405180910390fd5b6114f8336114f333611607565b612e3b565b6001600760003373ffffffffffffffffffffffffffffffffffffffff1673ffffffffffffffffffffffffffffffffffffffff16815260200190815260200160002060006101000a81548160ff02191690831515021790555060007f00000000000000000000000000000000000000000000000000000000000000003461157e9190615768565b905060008111156115d1573373ffffffffffffffffffffffffffffffffffffffff166108fc829081150290604051600060405180830381858888f193505050501580156115cf573d6000803e3d6000fd5b505b50565b60036020528060005260406000206000915054906101000a900473ffffffffffffffffffffffffffffffffffffffff1681565b60008173ffffffffffffffffffffffffffffffffffffffff169050919050565b60026020528060005260406000206000915090505481565b600660009054906101000a900473ffffffffffffffffffffffffffffffffffffffff1681565b600080600660009054906101000a900473ffffffffffffffffffffffffffffffffffffffff1673ffffffffffffffffffffffffffffffffffffffff16635a161b7c6040518163ffffffff1660e01b81526004016104806040518083038186803b1580156116d157600080fd5b505afa1580156116e5573d6000803e3d6000fd5b505050506040513d601f19601f820116820180604052508101906117099190614548565b8360098110611741577f4e487b7100000000000000000000000000000000000000000000000000000000600052603260045260246000fd5b60200201519050600061175385612d92565b905060018081111561178e577f4e487b7100000000000000000000000000000000000000000000000000000000600052602160045260246000fd5b8160018111156117c7577f4e487b7100000000000000000000000000000000000000000000000000000000600052602160045260246000fd5b14156118c75781600160048110611807577f4e487b7100000000000000000000000000000000000000000000000000000000600052603260045260246000fd5b602002015182600360048110611846577f4e487b7100000000000000000000000000000000000000000000000000000000600052603260045260246000fd5b60200201516118559190615768565b61186b8686600a6118669190615687565b612ce3565b6118759190615965565b826001600481106118af577f4e487b7100000000000000000000000000000000000000000000000000000000600052603260045260246000fd5b60200201516118be9190615687565b925050506119bd565b81600060048110611901577f4e487b7100000000000000000000000000000000000000000000000000000000600052603260045260246000fd5b602002015182600260048110611940577f4e487b7100000000000000000000000000000000000000000000000000000000600052603260045260246000fd5b602002015161194f9190615768565b6119658686600a6119609190615687565b612ce3565b61196f9190615965565b826000600481106119a9577f4e487b7100000000000000000000000000000000000000000000000000000000600052603260045260246000fd5b60200201516119b89190615687565b925050505b92915050565b60606000604051806101e001604052806101aa8152602001615b8d6101aa913990506000604051806060016040528060268152602001615b6760269139905060006040518060400160405280600c81526020017f3c2f7376673e3c2f7376673e00000000000000000000000000000000000000008152509050600060405180602001604052806000815250905060005b600660009054906101000a900473ffffffffffffffffffffffffffffffffffffffff1673ffffffffffffffffffffffffffffffffffffffff16635a161b7c6040518163ffffffff1660e01b81526004016104806040518083038186803b158015611abc57600080fd5b505afa158015611ad0573d6000803e3d6000fd5b505050506040513d601f19601f82011682018060405250810190611af49190614548565b506009811015611eb65760005b8751811015611ea257878181518110611b43577f4e487b7100000000000000000000000000000000000000000000000000000000600052603260045260246000fd5b6020026020010151600660009054906101000a900473ffffffffffffffffffffffffffffffffffffffff1673ffffffffffffffffffffffffffffffffffffffff16635a161b7c6040518163ffffffff1660e01b81526004016104806040518083038186803b158015611bb457600080fd5b505afa158015611bc8573d6000803e3d6000fd5b505050506040513d601f19601f82011682018060405250810190611bec9190614548565b8360098110611c24577f4e487b7100000000000000000000000000000000000000000000000000000000600052603260045260246000fd5b6020020151600060048110611c62577f4e487b7100000000000000000000000000000000000000000000000000000000600052603260045260246000fd5b602002015111158015611dcf5750600660009054906101000a900473ffffffffffffffffffffffffffffffffffffffff1673ffffffffffffffffffffffffffffffffffffffff16635a161b7c6040518163ffffffff1660e01b81526004016104806040518083038186803b158015611cd957600080fd5b505afa158015611ced573d6000803e3d6000fd5b505050506040513d601f19601f82011682018060405250810190611d119190614548565b8260098110611d49577f4e487b7100000000000000000000000000000000000000000000000000000000600052603260045260246000fd5b6020020151600360048110611d87577f4e487b7100000000000000000000000000000000000000000000000000000000600052603260045260246000fd5b6020020151888281518110611dc5577f4e487b7100000000000000000000000000000000000000000000000000000000600052603260045260246000fd5b6020026020010151105b15611e8f576000888281518110611e0f577f4e487b7100000000000000000000000000000000000000000000000000000000600052603260045260246000fd5b60200260200101519050600060188083611e299190615965565b611e33919061570e565b9050600060188084611e4591906156dd565b611e4f919061570e565b905085611e5b83612f9d565b611e6483612f9d565b604051602001611e7693929190615061565b6040516020818303038152906040529550505050611ea2565b8080611e9a906158e4565b915050611b01565b508080611eae906158e4565b915050611a53565b5083600660009054906101000a900473ffffffffffffffffffffffffffffffffffffffff1673ffffffffffffffffffffffffffffffffffffffff166360787be36040518163ffffffff1660e01b815260040160006040518083038186803b158015611f2057600080fd5b505afa158015611f34573d6000803e3d6000fd5b505050506040513d6000823e3d601f19601f82011682018060405250810190611f5d9190614745565b848385604051602001611f74959493929190615016565b604051602081830303815290604052945050505050919050565b60606000600660009054906101000a900473ffffffffffffffffffffffffffffffffffffffff1673ffffffffffffffffffffffffffffffffffffffff16635a161b7c6040518163ffffffff1660e01b81526004016104806040518083038186803b158015611ffb57600080fd5b505afa15801561200f573d6000803e3d6000fd5b505050506040513d601f19601f820116820180604052508101906120339190614548565b90506000600360096120459190615768565b612050856001612ce3565b61205a9190615965565b60026120669190615687565b905060008167ffffffffffffffff8111156120aa577f4e487b7100000000000000000000000000000000000000000000000000000000600052604160045260246000fd5b6040519080825280602002602001820160405280156120d85781602001602082028036833780820191505090505b5090506000805b838110156124985760006001600260096120f99190615768565b61210f8a85600261210a9190615687565b612ce3565b6121199190615965565b6121239190615687565b9050600061213185836130a6565b90508015612140575050612485565b600180811115612179577f4e487b7100000000000000000000000000000000000000000000000000000000600052602160045260246000fd5b6121828a612d92565b60018111156121ba577f4e487b7100000000000000000000000000000000000000000000000000000000600052602160045260246000fd5b14156123235760008783600981106121fb577f4e487b7100000000000000000000000000000000000000000000000000000000600052603260045260246000fd5b6020020151600160048110612239577f4e487b7100000000000000000000000000000000000000000000000000000000600052603260045260246000fd5b6020020151888460098110612277577f4e487b7100000000000000000000000000000000000000000000000000000000600052603260045260246000fd5b60200201516003600481106122b5577f4e487b7100000000000000000000000000000000000000000000000000000000600052603260045260246000fd5b60200201516122c49190615768565b1461231e5781858581518110612303577f4e487b7100000000000000000000000000000000000000000000000000000000600052603260045260246000fd5b602002602001018181525050838061231a906158e4565b9450505b612482565b600087836009811061235e577f4e487b7100000000000000000000000000000000000000000000000000000000600052603260045260246000fd5b602002015160006004811061239c577f4e487b7100000000000000000000000000000000000000000000000000000000600052603260045260246000fd5b60200201518884600981106123da577f4e487b7100000000000000000000000000000000000000000000000000000000600052603260045260246000fd5b6020020151600260048110612418577f4e487b7100000000000000000000000000000000000000000000000000000000600052603260045260246000fd5b60200201516124279190615768565b146124815781858581518110612466577f4e487b7100000000000000000000000000000000000000000000000000000000600052603260045260246000fd5b602002602001018181525050838061247d906158e4565b9450505b5b50505b8080612490906158e4565b9150506120df565b5060006001826124a89190615687565b67ffffffffffffffff8111156124e7577f4e487b7100000000000000000000000000000000000000000000000000000000600052604160045260246000fd5b6040519080825280602002602001820160405280156125155781602001602082028036833780820191505090505b509050600081600081518110612554577f4e487b7100000000000000000000000000000000000000000000000000000000600052603260045260246000fd5b60200260200101818152505060005b82811015612610578381815181106125a4577f4e487b7100000000000000000000000000000000000000000000000000000000600052603260045260246000fd5b6020026020010151826001836125ba9190615687565b815181106125f1577f4e487b7100000000000000000000000000000000000000000000000000000000600052603260045260246000fd5b6020026020010181815250508080612608906158e4565b915050612563565b508095505050505050919050565b6001805461262b906158b2565b80601f0160208091040260200160405190810160405280929190818152602001828054612657906158b2565b80156126a45780601f10612679576101008083540402835291602001916126a4565b820191906000526020600020905b81548152906001019060200180831161268757829003601f168201915b505050505081565b6000806000806126bb856129ea565b925092509250600186828585604051600081526020016040526040516126e494939291906152c5565b6020604051602081039080840390855afa158015612706573d6000803e3d6000fd5b50505060206040510351935050505092915050565b7f000000000000000000000000000000000000000000000000000000000000000034101561277e576040517f08c379a0000000000000000000000000000000000000000000000000000000008152600401612775906153a2565b60405180910390fd5b6127be826040518060400160405280601f81526020017f4d65737361676520746f20636c61696d2053796e7468657469632050756e6b00815250836110e4565b6127fd576040517f08c379a00000000000000000000000000000000000000000000000000000000081526004016127f490615362565b60405180910390fd5b61280f3361280a84611607565b612e3b565b6001600760008473ffffffffffffffffffffffffffffffffffffffff1673ffffffffffffffffffffffffffffffffffffffff16815260200190815260200160002060006101000a81548160ff02191690831515021790555060007f0000000000000000000000000000000000000000000000000000000000000000346128959190615768565b905060008111156128e8578273ffffffffffffffffffffffffffffffffffffffff166108fc829081150290604051600060405180830381858888f193505050501580156128e6573d6000803e3d6000fd5b505b505050565b80600560003373ffffffffffffffffffffffffffffffffffffffff1673ffffffffffffffffffffffffffffffffffffffff16815260200190815260200160002060008473ffffffffffffffffffffffffffffffffffffffff1673ffffffffffffffffffffffffffffffffffffffff16815260200190815260200160002060006101000a81548160ff0219169083151502179055508173ffffffffffffffffffffffffffffffffffffffff163373ffffffffffffffffffffffffffffffffffffffff167f17307eab39ab6107e8899845ad3d59bd9653f200f220920489ca2b5937696c31836040516129de9190615258565b60405180910390a35050565b60008060006041845114612a33576040517f08c379a0000000000000000000000000000000000000000000000000000000008152600401612a2a90615402565b60405180910390fd5b6020840151925060408401519150606084015160001a90509193909250565b6060612a65612a6083611607565b612c0c565b9050919050565b600081604051602001612a7f9190614fff565b604051602081830303815290604052805190602001209050919050565b612aa7848484610ce4565b60008373ffffffffffffffffffffffffffffffffffffffff16803b806020016040519081016040528181526000908060200190933c511480612bbd575063150b7a0260e01b7bffffffffffffffffffffffffffffffffffffffffffffffffffffffff19168373ffffffffffffffffffffffffffffffffffffffff1663150b7a02338786866040518563ffffffff1660e01b8152600401612b4a949392919061517e565b602060405180830381600087803b158015612b6457600080fd5b505af1158015612b78573d6000803e3d6000fd5b505050506040513d601f19601f82011682018060405250810190612b9c919061469a565b7bffffffffffffffffffffffffffffffffffffffffffffffffffffffff1916145b612bfc576040517f08c379a0000000000000000000000000000000000000000000000000000000008152600401612bf3906153c2565b60405180910390fd5b50505050565b6000819050919050565b60606000612c1983611347565b90506000612c26826119c3565b90506000612c3385612c02565b90506000612c4082613128565b9050600080825114612c525781612c5c565b612c5b8361336b565b5b90506000612c948283612c6e88613679565b604051602001612c80939291906150d9565b604051602081830303815290604052613679565b905080604051602001612ca79190615141565b6040516020818303038152906040529650505050505050919050565b60076020528060005260406000206000915054906101000a900460ff1681565b600060208210612d28576040517f08c379a0000000000000000000000000000000000000000000000000000000008152600401612d1f906153e2565b60405180910390fd5b60003084604051602001612d3d929190614fd3565b6040516020818303038152906040528051906020012090506000600884612d64919061570e565b60ff901b60001b90506000600885612d7c919061570e565b828416901c60001c905080935050505092915050565b6000806002612da2846000612ce3565b612dac9190615965565b14612db8576001612dbb565b60005b9050919050565b60056020528160005260406000206020528060005260406000206000915091509054906101000a900460ff1681565b600081604051602001612e0491906150b3565b604051602081830303815290604052805190602001209050919050565b6060612e34612e2f83611607565b611347565b9050919050565b612e45828261383e565b60008273ffffffffffffffffffffffffffffffffffffffff16803b806020016040519081016040528181526000908060200190933c511480612f5a575063150b7a0260e01b7bffffffffffffffffffffffffffffffffffffffffffffffffffffffff19168273ffffffffffffffffffffffffffffffffffffffff1663150b7a02336000856040518463ffffffff1660e01b8152600401612ee7939291906151ca565b602060405180830381600087803b158015612f0157600080fd5b505af1158015612f15573d6000803e3d6000fd5b505050506040513d601f19601f82011682018060405250810190612f39919061469a565b7bffffffffffffffffffffffffffffffffffffffffffffffffffffffff1916145b612f99576040517f08c379a0000000000000000000000000000000000000000000000000000000008152600401612f90906153c2565b60405180910390fd5b5050565b60606000604e90506000603090506000841415612ff3576040518060400160405280600181526020017f3000000000000000000000000000000000000000000000000000000000000000815250925050506130a1565b8167ffffffffffffffff811115613033577f4e487b7100000000000000000000000000000000000000000000000000000000600052604160045260246000fd5b6040519080825280601f01601f1916602001820160405280156130655781602001600182028036833780820191505090505b50925060008290505b6000851461309357600a850682018082860152600182039150600a860495505061306e565b808401935080830384525050505b919050565b600080600090505b835181101561311c57828482815181106130f1577f4e487b7100000000000000000000000000000000000000000000000000000000600052603260045260246000fd5b60200260200101511415613109576001915050613122565b8080613114906158e4565b9150506130ae565b50600090505b92915050565b60607f000000000000000000000000000000000000000000000000000000000000000073ffffffffffffffffffffffffffffffffffffffff16600073ffffffffffffffffffffffffffffffffffffffff16141561318457613366565b60007f000000000000000000000000000000000000000000000000000000000000000090506000600167ffffffffffffffff8111156131ec577f4e487b7100000000000000000000000000000000000000000000000000000000600052604160045260246000fd5b60405190808252806020026020018201604052801561321a5781602001602082028036833780820191505090505b5090508381600081518110613258577f4e487b7100000000000000000000000000000000000000000000000000000000600052603260045260246000fd5b602002602001019073ffffffffffffffffffffffffffffffffffffffff16908173ffffffffffffffffffffffffffffffffffffffff16815250508173ffffffffffffffffffffffffffffffffffffffff1663cbf8b66c826040518263ffffffff1660e01b81526004016132cb9190615214565b60006040518083038186803b1580156132e357600080fd5b505afa1580156132f7573d6000803e3d6000fd5b505050506040513d6000823e3d601f19601f820116820180604052508101906133209190614572565b600081518110613359577f4e487b7100000000000000000000000000000000000000000000000000000000600052603260045260246000fd5b6020026020010151925050505b919050565b6060600061337883613a51565b905060008190506000600d67ffffffffffffffff8111156133c2577f4e487b7100000000000000000000000000000000000000000000000000000000600052604160045260246000fd5b6040519080825280601f01601f1916602001820160405280156133f45781602001600182028036833780820191505090505b5090506000805b60068110156134cf5783818151811061343d577f4e487b7100000000000000000000000000000000000000000000000000000000600052603260045260246000fd5b602001015160f81c60f81b838380613454906158e4565b94508151811061348d577f4e487b7100000000000000000000000000000000000000000000000000000000600052603260045260246000fd5b60200101907effffffffffffffffffffffffffffffffffffffffffffffffffffffffffffff1916908160001a90535080806134c7906158e4565b9150506133fb565b5060005b6003811015613584577f2e00000000000000000000000000000000000000000000000000000000000000838380613509906158e4565b945081518110613542577f4e487b7100000000000000000000000000000000000000000000000000000000600052603260045260246000fd5b60200101907effffffffffffffffffffffffffffffffffffffffffffffffffffffffffffff1916908160001a905350808061357c906158e4565b9150506134d3565b506000600484516135959190615768565b90505b835181101561366c578381815181106135da577f4e487b7100000000000000000000000000000000000000000000000000000000600052603260045260246000fd5b602001015160f81c60f81b8383806135f1906158e4565b94508151811061362a577f4e487b7100000000000000000000000000000000000000000000000000000000600052603260045260246000fd5b60200101907effffffffffffffffffffffffffffffffffffffffffffffffffffffffffffff1916908160001a9053508080613664906158e4565b915050613598565b5081945050505050919050565b60606000604051806060016040528060408152602001615b2760409139905060008351905060008114156136c0576040518060200160405280600081525092505050613839565b600060036002836136d19190615687565b6136db91906156dd565b60046136e7919061570e565b905060006020826136f89190615687565b67ffffffffffffffff811115613737577f4e487b7100000000000000000000000000000000000000000000000000000000600052604160045260246000fd5b6040519080825280601f01601f1916602001820160405280156137695781602001600182028036833780820191505090505b5090506000849050600181016020830160005b868110156137f55760038101905062ffffff818b015116603f8160121c168401518060081b905060ff603f83600c1c1686015116810190508060081b905060ff603f8360061c1686015116810190508060081b905060ff603f831686015116810190508060e01b9050808452600484019350505061377c565b50600386066001811461380f576002811461381f5761382a565b613d3d60f01b600283035261382a565b603d60f81b60018303525b50848452505081955050505050505b919050565b600073ffffffffffffffffffffffffffffffffffffffff168273ffffffffffffffffffffffffffffffffffffffff1614156138ae576040517f08c379a00000000000000000000000000000000000000000000000000000000081526004016138a590615382565b60405180910390fd5b600073ffffffffffffffffffffffffffffffffffffffff166003600083815260200190815260200160002060009054906101000a900473ffffffffffffffffffffffffffffffffffffffff1673ffffffffffffffffffffffffffffffffffffffff1614613950576040517f08c379a000000000000000000000000000000000000000000000000000000000815260040161394790615422565b60405180910390fd5b600260008373ffffffffffffffffffffffffffffffffffffffff1673ffffffffffffffffffffffffffffffffffffffff16815260200190815260200160002060008154809291906001019190505550816003600083815260200190815260200160002060006101000a81548173ffffffffffffffffffffffffffffffffffffffff021916908373ffffffffffffffffffffffffffffffffffffffff160217905550808273ffffffffffffffffffffffffffffffffffffffff16600073ffffffffffffffffffffffffffffffffffffffff167fddf252ad1be2c89b69c2b068fc378daa952ba7f163c4a11628f55a4df523b3ef60405160405180910390a45050565b6060613a7b82604051602001613a679190614fb8565b604051602081830303815290604052613a82565b9050919050565b606060006040518060400160405280601081526020017f30313233343536373839616263646566000000000000000000000000000000008152509050600060028451613ace919061570e565b6002613ada9190615687565b67ffffffffffffffff811115613b19577f4e487b7100000000000000000000000000000000000000000000000000000000600052604160045260246000fd5b6040519080825280601f01601f191660200182016040528015613b4b5781602001600182028036833780820191505090505b5090507f300000000000000000000000000000000000000000000000000000000000000081600081518110613ba9577f4e487b7100000000000000000000000000000000000000000000000000000000600052603260045260246000fd5b60200101907effffffffffffffffffffffffffffffffffffffffffffffffffffffffffffff1916908160001a9053507f780000000000000000000000000000000000000000000000000000000000000081600181518110613c33577f4e487b7100000000000000000000000000000000000000000000000000000000600052603260045260246000fd5b60200101907effffffffffffffffffffffffffffffffffffffffffffffffffffffffffffff1916908160001a90535060005b8451811015613ec757826004868381518110613caa577f4e487b7100000000000000000000000000000000000000000000000000000000600052603260045260246000fd5b602001015160f81c60f81b7effffffffffffffffffffffffffffffffffffffffffffffffffffffffffffff1916901c60f81c60ff1681518110613d16577f4e487b7100000000000000000000000000000000000000000000000000000000600052603260045260246000fd5b602001015160f81c60f81b82600283613d2f919061570e565b6002613d3b9190615687565b81518110613d72577f4e487b7100000000000000000000000000000000000000000000000000000000600052603260045260246000fd5b60200101907effffffffffffffffffffffffffffffffffffffffffffffffffffffffffffff1916908160001a90535082600f60f81b868381518110613de0577f4e487b7100000000000000000000000000000000000000000000000000000000600052603260045260246000fd5b602001015160f81c60f81b1660f81c60ff1681518110613e29577f4e487b7100000000000000000000000000000000000000000000000000000000600052603260045260246000fd5b602001015160f81c60f81b82600283613e42919061570e565b6003613e4e9190615687565b81518110613e85577f4e487b7100000000000000000000000000000000000000000000000000000000600052603260045260246000fd5b60200101907effffffffffffffffffffffffffffffffffffffffffffffffffffffffffffff1916908160001a9053508080613ebf906158e4565b915050613c65565b508092505050919050565b6000613ee5613ee0846154ce565b61549d565b90508082856080860282011115613efb57600080fd5b60005b85811015613f2b5781613f118882614181565b845260208401935060808301925050600181019050613efe565b5050509392505050565b6000613f48613f43846154f4565b61549d565b9050808382526020820190508260005b85811015613f885781518501613f6e888261427a565b845260208401935060208301925050600181019050613f58565b5050509392505050565b6000613fa5613fa084615520565b61549d565b90508082856020860282011115613fbb57600080fd5b60005b85811015613feb5781613fd188826142b9565b845260208401935060208301925050600181019050613fbe565b5050509392505050565b600061400861400384615546565b61549d565b9050808382526020820190508285602086028201111561402757600080fd5b60005b85811015614057578161403d88826142a4565b84526020840193506020830192505060018101905061402a565b5050509392505050565b600061407461406f84615572565b61549d565b90508281526020810184848401111561408c57600080fd5b614097848285615870565b509392505050565b60006140b26140ad846155a2565b61549d565b9050828152602081018484840111156140ca57600080fd5b6140d5848285615870565b509392505050565b60006140f06140eb846155a2565b61549d565b90508281526020810184848401111561410857600080fd5b61411384828561587f565b509392505050565b60008135905061412a81615ab3565b92915050565b600082601f83011261414157600080fd5b600961414e848285613ed2565b91505092915050565b600082601f83011261416857600080fd5b8151614178848260208601613f35565b91505092915050565b600082601f83011261419257600080fd5b600461419f848285613f92565b91505092915050565b600082601f8301126141b957600080fd5b81356141c9848260208601613ff5565b91505092915050565b6000813590506141e181615aca565b92915050565b6000813590506141f681615ae1565b92915050565b60008135905061420b81615af8565b92915050565b60008151905061422081615af8565b92915050565b600082601f83011261423757600080fd5b8135614247848260208601614061565b91505092915050565b600082601f83011261426157600080fd5b813561427184826020860161409f565b91505092915050565b600082601f83011261428b57600080fd5b815161429b8482602086016140dd565b91505092915050565b6000813590506142b381615b0f565b92915050565b6000815190506142c881615b0f565b92915050565b6000602082840312156142e057600080fd5b60006142ee8482850161411b565b91505092915050565b6000806040838503121561430a57600080fd5b60006143188582860161411b565b92505060206143298582860161411b565b9150509250929050565b60008060006060848603121561434857600080fd5b60006143568682870161411b565b93505060206143678682870161411b565b9250506040614378868287016142a4565b9150509250925092565b6000806000806080858703121561439857600080fd5b60006143a68782880161411b565b94505060206143b78782880161411b565b93505060406143c8878288016142a4565b925050606085013567ffffffffffffffff8111156143e557600080fd5b6143f187828801614226565b91505092959194509250565b6000806040838503121561441057600080fd5b600061441e8582860161411b565b925050602061442f858286016141d2565b9150509250929050565b6000806040838503121561444c57600080fd5b600061445a8582860161411b565b925050602083013567ffffffffffffffff81111561447757600080fd5b61448385828601614226565b9150509250929050565b6000806000606084860312156144a257600080fd5b60006144b08682870161411b565b935050602084013567ffffffffffffffff8111156144cd57600080fd5b6144d986828701614250565b925050604084013567ffffffffffffffff8111156144f657600080fd5b61450286828701614226565b9150509250925092565b6000806040838503121561451f57600080fd5b600061452d8582860161411b565b925050602061453e858286016142a4565b9150509250929050565b6000610480828403121561455b57600080fd5b600061456984828501614130565b91505092915050565b60006020828403121561458457600080fd5b600082015167ffffffffffffffff81111561459e57600080fd5b6145aa84828501614157565b91505092915050565b6000602082840312156145c557600080fd5b600082013567ffffffffffffffff8111156145df57600080fd5b6145eb848285016141a8565b91505092915050565b60006020828403121561460657600080fd5b6000614614848285016141e7565b91505092915050565b6000806040838503121561463057600080fd5b600061463e858286016141e7565b925050602083013567ffffffffffffffff81111561465b57600080fd5b61466785828601614226565b9150509250929050565b60006020828403121561468357600080fd5b6000614691848285016141fc565b91505092915050565b6000602082840312156146ac57600080fd5b60006146ba84828501614211565b91505092915050565b6000602082840312156146d557600080fd5b600082013567ffffffffffffffff8111156146ef57600080fd5b6146fb84828501614226565b91505092915050565b60006020828403121561471657600080fd5b600082013567ffffffffffffffff81111561473057600080fd5b61473c84828501614250565b91505092915050565b60006020828403121561475757600080fd5b600082015167ffffffffffffffff81111561477157600080fd5b61477d8482850161427a565b91505092915050565b60006020828403121561479857600080fd5b60006147a6848285016142a4565b91505092915050565b600080604083850312156147c257600080fd5b60006147d0858286016142a4565b92505060206147e1858286016142a4565b9150509250929050565b60006147f7838361481b565b60208301905092915050565b600061480f8383614f74565b60208301905092915050565b6148248161579c565b82525050565b6148338161579c565b82525050565b61484a6148458261579c565b61592d565b82525050565b600061485b826155f2565b6148658185615638565b9350614870836155d2565b8060005b838110156148a157815161488888826147eb565b97506148938361561e565b925050600181019050614874565b5085935050505092915050565b60006148b9826155fd565b6148c38185615649565b93506148ce836155e2565b8060005b838110156148ff5781516148e68882614803565b97506148f18361562b565b9250506001810190506148d2565b5085935050505092915050565b614915816157ae565b82525050565b614924816157ba565b82525050565b61493b614936826157ba565b61593f565b82525050565b600061494c82615608565b614956818561565a565b935061496681856020860161587f565b61496f81615a81565b840191505092915050565b6149838161583a565b82525050565b6149928161585e565b82525050565b60006149a382615613565b6149ad818561566b565b93506149bd81856020860161587f565b6149c681615a81565b840191505092915050565b60006149dc82615613565b6149e6818561567c565b93506149f681856020860161587f565b80840191505092915050565b6000614a0f601c8361567c565b91507f19457468657265756d205369676e6564204d6573736167653a0a3332000000006000830152601c82019050919050565b6000614a4f60118361566b565b91507f496e76616c6964207369676e61747572650000000000000000000000000000006000830152602082019050919050565b6000614a8f60258361567c565b91507f3c7376672077696474683d22323422206865696768743d22323422207669657760008301527f426f783d220000000000000000000000000000000000000000000000000000006020830152602582019050919050565b6000614af560198361567c565b91507f53796e7468657469632043727970746f50756e6b20666f7220000000000000006000830152601982019050919050565b6000614b3560118361566b565b91507f494e56414c49445f524543495049454e540000000000000000000000000000006000830152602082019050919050565b6000614b7560018361567c565b91507f20000000000000000000000000000000000000000000000000000000000000006000830152600182019050919050565b6000614bb560028361567c565b91507f227d0000000000000000000000000000000000000000000000000000000000006000830152600282019050919050565b6000614bf560148361566b565b91507f496e73756666696369656e74207061796d656e740000000000000000000000006000830152602082019050919050565b6000614c3560348361567c565b91507f222c20226465736372697074696f6e223a202254686973206973206120756e6960008301527f7175652050756e6b20636c61696d6564206279200000000000000000000000006020830152603482019050919050565b6000614c9b60108361566b565b91507f554e534146455f524543495049454e54000000000000000000000000000000006000830152602082019050919050565b6000614cdb600a8361567c565b91507f7b226e616d65223a2022000000000000000000000000000000000000000000006000830152600a82019050919050565b6000614d1b60288361567c565b91507f2e222c2022696d616765223a2022646174613a696d6167652f7376672b786d6c60008301527f3b6261736536342c0000000000000000000000000000000000000000000000006020830152602882019050919050565b6000614d81601d8361567c565b91507f646174613a6170706c69636174696f6e2f6a736f6e3b6261736536342c0000006000830152601d82019050919050565b6000614dc160148361566b565b91507f4f6666736574206f7574206f6620626f756e64730000000000000000000000006000830152602082019050919050565b6000614e0160008361565a565b9150600082019050919050565b6000614e1b602d8361567c565b91507f203234203234223e3c75736520687265663d222373707269746573686565742260008301527f3e3c2f7573653e3c2f7376673e000000000000000000000000000000000000006020830152602d82019050919050565b6000614e8160188361566b565b91507f696e76616c6964207369676e6174757265206c656e67746800000000000000006000830152602082019050919050565b6000614ec1600e8361566b565b91507f414c52454144595f4d494e5445440000000000000000000000000000000000006000830152602082019050919050565b6000614f01600e8361566b565b91507f4e4f545f415554484f52495a45440000000000000000000000000000000000006000830152602082019050919050565b6000614f41600a8361566b565b91507f57524f4e475f46524f4d000000000000000000000000000000000000000000006000830152602082019050919050565b614f7d81615823565b82525050565b614f8c81615823565b82525050565b614fa3614f9e82615823565b61595b565b82525050565b614fb28161582d565b82525050565b6000614fc48284614839565b60148201915081905092915050565b6000614fdf8285614839565b601482019150614fef8284614f92565b6020820191508190509392505050565b600061500b82846149d1565b915081905092915050565b600061502282886149d1565b915061502e82876149d1565b915061503a82866149d1565b915061504682856149d1565b915061505282846149d1565b91508190509695505050505050565b600061506d82866149d1565b915061507882614a82565b915061508482856149d1565b915061508f82614b68565b915061509b82846149d1565b91506150a682614e0e565b9150819050949350505050565b60006150be82614a02565b91506150ca828461492a565b60208201915081905092915050565b60006150e482614cce565b91506150ef82614ae8565b91506150fb82866149d1565b915061510682614c28565b915061511282856149d1565b915061511d82614d0e565b915061512982846149d1565b915061513482614ba8565b9150819050949350505050565b600061514c82614d74565b915061515882846149d1565b915081905092915050565b6000602082019050615178600083018461482a565b92915050565b6000608082019050615193600083018761482a565b6151a0602083018661482a565b6151ad6040830185614f83565b81810360608301526151bf8184614941565b905095945050505050565b60006080820190506151df600083018661482a565b6151ec602083018561482a565b6151f96040830184614f83565b818103606083015261520a81614df4565b9050949350505050565b6000602082019050818103600083015261522e8184614850565b905092915050565b6000602082019050818103600083015261525081846148ae565b905092915050565b600060208201905061526d600083018461490c565b92915050565b6000602082019050615288600083018461491b565b92915050565b60006060820190506152a3600083018661491b565b6152b0602083018561491b565b6152bd6040830184614fa9565b949350505050565b60006080820190506152da600083018761491b565b6152e76020830186614fa9565b6152f4604083018561491b565b615301606083018461491b565b95945050505050565b600060208201905061531f600083018461497a565b92915050565b600060208201905061533a6000830184614989565b92915050565b6000602082019050818103600083015261535a8184614998565b905092915050565b6000602082019050818103600083015261537b81614a42565b9050919050565b6000602082019050818103600083015261539b81614b28565b9050919050565b600060208201905081810360008301526153bb81614be8565b9050919050565b600060208201905081810360008301526153db81614c8e565b9050919050565b600060208201905081810360008301526153fb81614db4565b9050919050565b6000602082019050818103600083015261541b81614e74565b9050919050565b6000602082019050818103600083015261543b81614eb4565b9050919050565b6000602082019050818103600083015261545b81614ef4565b9050919050565b6000602082019050818103600083015261547b81614f34565b9050919050565b60006020820190506154976000830184614f83565b92915050565b6000604051905081810181811067ffffffffffffffff821117156154c4576154c3615a52565b5b8060405250919050565b600067ffffffffffffffff8211156154e9576154e8615a52565b5b602082029050919050565b600067ffffffffffffffff82111561550f5761550e615a52565b5b602082029050602081019050919050565b600067ffffffffffffffff82111561553b5761553a615a52565b5b602082029050919050565b600067ffffffffffffffff82111561556157615560615a52565b5b602082029050602081019050919050565b600067ffffffffffffffff82111561558d5761558c615a52565b5b601f19601f8301169050602081019050919050565b600067ffffffffffffffff8211156155bd576155bc615a52565b5b601f19601f8301169050602081019050919050565b6000819050602082019050919050565b6000819050602082019050919050565b600081519050919050565b600081519050919050565b600081519050919050565b600081519050919050565b6000602082019050919050565b6000602082019050919050565b600082825260208201905092915050565b600082825260208201905092915050565b600082825260208201905092915050565b600082825260208201905092915050565b600081905092915050565b600061569282615823565b915061569d83615823565b9250827fffffffffffffffffffffffffffffffffffffffffffffffffffffffffffffffff038211156156d2576156d1615996565b5b828201905092915050565b60006156e882615823565b91506156f383615823565b925082615703576157026159c5565b5b828204905092915050565b600061571982615823565b915061572483615823565b9250817fffffffffffffffffffffffffffffffffffffffffffffffffffffffffffffffff048311821515161561575d5761575c615996565b5b828202905092915050565b600061577382615823565b915061577e83615823565b92508282101561579157615790615996565b5b828203905092915050565b60006157a782615803565b9050919050565b60008115159050919050565b6000819050919050565b60007fffffffff0000000000000000000000000000000000000000000000000000000082169050919050565b60008190506157fe82615a9f565b919050565b600073ffffffffffffffffffffffffffffffffffffffff82169050919050565b6000819050919050565b600060ff82169050919050565b60006158458261584c565b9050919050565b600061585782615803565b9050919050565b6000615869826157f0565b9050919050565b82818337600083830152505050565b60005b8381101561589d578082015181840152602081019050615882565b838111156158ac576000848401525b50505050565b600060028204905060018216806158ca57607f821691505b602082108114156158de576158dd615a23565b5b50919050565b60006158ef82615823565b91507fffffffffffffffffffffffffffffffffffffffffffffffffffffffffffffffff82141561592257615921615996565b5b600182019050919050565b600061593882615949565b9050919050565b6000819050919050565b600061595482615a92565b9050919050565b6000819050919050565b600061597082615823565b915061597b83615823565b92508261598b5761598a6159c5565b5b828206905092915050565b7f4e487b7100000000000000000000000000000000000000000000000000000000600052601160045260246000fd5b7f4e487b7100000000000000000000000000000000000000000000000000000000600052601260045260246000fd5b7f4e487b7100000000000000000000000000000000000000000000000000000000600052602160045260246000fd5b7f4e487b7100000000000000000000000000000000000000000000000000000000600052602260045260246000fd5b7f4e487b7100000000000000000000000000000000000000000000000000000000600052604160045260246000fd5b6000601f19601f8301169050919050565b60008160601b9050919050565b60028110615ab057615aaf6159f4565b5b50565b615abc8161579c565b8114615ac757600080fd5b50565b615ad3816157ae565b8114615ade57600080fd5b50565b615aea816157ba565b8114615af557600080fd5b50565b615b01816157c4565b8114615b0c57600080fd5b50565b615b1881615823565b8114615b2357600080fd5b5056fe4142434445464748494a4b4c4d4e4f505152535455565758595a6162636465666768696a6b6c6d6e6f707172737475767778797a303132333435363738392b2f223e3c2f696d6167653e3c2f7376673e3c2f646566733e3c7376672069643d2270756e6b223e3c7376672076696577426f783d22302030203234203234222077696474683d22313030302220786d6c6e733d22687474703a2f2f7777772e77332e6f72672f323030302f73766722203e3c646566733e3c7374796c653e237370726974657368656574207b20696d6167652d72656e646572696e673a202d7765626b69742d6f7074696d697a652d636f6e74726173743b20696d6167652d72656e646572696e673a2063726973702d65646765733b20696d6167652d72656e646572696e673a20706978656c617465643b207d202370756e6b207b2066696c7465723a2064726f702d736861646f77283070782030707820353070782072676228302c203235352c203136362c20302e3729293b207d20737667207b206261636b67726f756e64203a20233641393438303b207d3c2f7374796c653e3c7376672077696474683d22323422206865696768743d223234222076696577426f783d2234382030203234203234223e3c696d6167652069643d22737072697465736865657422207072657365727665417370656374526174696f3d22784d696e594d696e20736c6963652220687265663d22a26469706673582212203094f880652ecb0562777269fac1cbd51a3d37079df5d77dec1bb67cf7c81ed864736f6c63430008000033",
  "devdoc": {
    "kind": "dev",
    "methods": {},
    "version": 1
  },
  "userdoc": {
    "kind": "user",
    "methods": {},
    "version": 1
  },
  "storageLayout": {
    "storage": [
      {
        "astId": 28,
        "contract": "contracts/SyntheticPunks.sol:SyntheticPunks",
        "label": "name",
        "offset": 0,
        "slot": "0",
        "type": "t_string_storage"
      },
      {
        "astId": 30,
        "contract": "contracts/SyntheticPunks.sol:SyntheticPunks",
        "label": "symbol",
        "offset": 0,
        "slot": "1",
        "type": "t_string_storage"
      },
      {
        "astId": 41,
        "contract": "contracts/SyntheticPunks.sol:SyntheticPunks",
        "label": "balanceOf",
        "offset": 0,
        "slot": "2",
        "type": "t_mapping(t_address,t_uint256)"
      },
      {
        "astId": 45,
        "contract": "contracts/SyntheticPunks.sol:SyntheticPunks",
        "label": "ownerOf",
        "offset": 0,
        "slot": "3",
        "type": "t_mapping(t_uint256,t_address)"
      },
      {
        "astId": 49,
        "contract": "contracts/SyntheticPunks.sol:SyntheticPunks",
        "label": "getApproved",
        "offset": 0,
        "slot": "4",
        "type": "t_mapping(t_uint256,t_address)"
      },
      {
        "astId": 55,
        "contract": "contracts/SyntheticPunks.sol:SyntheticPunks",
        "label": "isApprovedForAll",
        "offset": 0,
        "slot": "5",
        "type": "t_mapping(t_address,t_mapping(t_address,t_bool))"
      },
      {
        "astId": 534,
        "contract": "contracts/SyntheticPunks.sol:SyntheticPunks",
        "label": "assets",
        "offset": 0,
        "slot": "6",
        "type": "t_contract(ISyntheticPunksAssets)1942"
      },
      {
        "astId": 548,
        "contract": "contracts/SyntheticPunks.sol:SyntheticPunks",
        "label": "claimed",
        "offset": 0,
        "slot": "7",
        "type": "t_mapping(t_address,t_bool)"
      }
    ],
    "types": {
      "t_address": {
        "encoding": "inplace",
        "label": "address",
        "numberOfBytes": "20"
      },
      "t_bool": {
        "encoding": "inplace",
        "label": "bool",
        "numberOfBytes": "1"
      },
      "t_contract(ISyntheticPunksAssets)1942": {
        "encoding": "inplace",
        "label": "contract ISyntheticPunksAssets",
        "numberOfBytes": "20"
      },
      "t_mapping(t_address,t_bool)": {
        "encoding": "mapping",
        "key": "t_address",
        "label": "mapping(address => bool)",
        "numberOfBytes": "32",
        "value": "t_bool"
      },
      "t_mapping(t_address,t_mapping(t_address,t_bool))": {
        "encoding": "mapping",
        "key": "t_address",
        "label": "mapping(address => mapping(address => bool))",
        "numberOfBytes": "32",
        "value": "t_mapping(t_address,t_bool)"
      },
      "t_mapping(t_address,t_uint256)": {
        "encoding": "mapping",
        "key": "t_address",
        "label": "mapping(address => uint256)",
        "numberOfBytes": "32",
        "value": "t_uint256"
      },
      "t_mapping(t_uint256,t_address)": {
        "encoding": "mapping",
        "key": "t_uint256",
        "label": "mapping(uint256 => address)",
        "numberOfBytes": "32",
        "value": "t_address"
      },
      "t_string_storage": {
        "encoding": "bytes",
        "label": "string",
        "numberOfBytes": "32"
      },
      "t_uint256": {
        "encoding": "inplace",
        "label": "uint256",
        "numberOfBytes": "32"
      }
    }
  }
}